{
  "transactions": [
    {
      "hash": "0x1e803bb695ae051d73bd2b5b2b6e35717d93f83d0d250d910bd4c1bea3fc5936",
      "transactionType": "CALL",
      "contractName": null,
      "contractAddress": "0xBCd5762cF9B07EF5597014c350CE2efB2b0DB2D2",
      "function": "requestCrossChainCall((address,(address,bytes,uint256)[],address,uint256,address,address,bytes32,address,uint256,uint256,uint256,uint256,address,bytes))",
      "arguments": [
        "(0x8C1a617BdB47342F9C17Ac8750E0b070c372C721, [(0x8C1a617BdB47342F9C17Ac8750E0b070c372C721, 0x, 1)], 0x062fBdCfd17A0346D2A9d89FE233bbAdBd1DC14C, 84532, 0xaC60fCC226899F14016d14CfCC955598D4cbe10F, 0x218CD9489199F321E1177b56385d333c5B598629, 0xa6eef7e35abe7026729641147f7915573c7e97b47efa546f5f6e3230263bcb49, 0xEeeeeEeeeEeEeeEeEeEeeEEEeeeeEeeeeeeeEEeE, 2, 604800, 0, 1730501842, 0x0000000000000000000000000000000000000000, 0x)"
      ],
      "transaction": {
        "from": "0x8C1a617BdB47342F9C17Ac8750E0b070c372C721",
        "to": "0xBCd5762cF9B07EF5597014c350CE2efB2b0DB2D2",
        "gas": "0x1abd8",
        "value": "0x2",
        "input": "0xe786188e00000000000000000000000000000000000000000000000000000000000000200000000000000000000000008c1a617bdb47342f9c17ac8750e0b070c372c72100000000000000000000000000000000000000000000000000000000000001c0000000000000000000000000062fbdcfd17a0346d2a9d89fe233bbadbd1dc14c0000000000000000000000000000000000000000000000000000000000014a34000000000000000000000000ac60fcc226899f14016d14cfcc955598d4cbe10f000000000000000000000000218cd9489199f321e1177b56385d333c5b598629a6eef7e35abe7026729641147f7915573c7e97b47efa546f5f6e3230263bcb49000000000000000000000000eeeeeeeeeeeeeeeeeeeeeeeeeeeeeeeeeeeeeeee00000000000000000000000000000000000000000000000000000000000000020000000000000000000000000000000000000000000000000000000000093a8000000000000000000000000000000000000000000000000000000000000000000000000000000000000000000000000000000000000000000000000067255cd200000000000000000000000000000000000000000000000000000000000000000000000000000000000000000000000000000000000000000000000000000280000000000000000000000000000000000000000000000000000000000000000100000000000000000000000000000000000000000000000000000000000000200000000000000000000000008c1a617bdb47342f9c17ac8750e0b070c372c7210000000000000000000000000000000000000000000000000000000000000060000000000000000000000000000000000000000000000000000000000000000100000000000000000000000000000000000000000000000000000000000000000000000000000000000000000000000000000000000000000000000000000000",
        "nonce": "0xd",
        "chainId": "0x66eee"
      },
      "additionalContracts": [],
      "isFixedGasLimit": false
    }
  ],
  "receipts": [
    {
      "status": "0x1",
      "cumulativeGasUsed": "0x36d52",
      "logs": [
        {
          "address": "0xBCd5762cF9B07EF5597014c350CE2efB2b0DB2D2",
          "topics": [
            "0x91466a77985019372d6bde6728a808e42b6db50de58526264b5b3716bf7d11de",
            "0xbeb00865762f138cf30f7e0511d1695f377a9ca95019995b39e36dff1dc46b2d"
          ],
          "data": "0x00000000000000000000000000000000000000000000000000000000000000200000000000000000000000008c1a617bdb47342f9c17ac8750e0b070c372c72100000000000000000000000000000000000000000000000000000000000001c0000000000000000000000000062fbdcfd17a0346d2a9d89fe233bbadbd1dc14c0000000000000000000000000000000000000000000000000000000000014a34000000000000000000000000ac60fcc226899f14016d14cfcc955598d4cbe10f000000000000000000000000218cd9489199f321e1177b56385d333c5b598629a6eef7e35abe7026729641147f7915573c7e97b47efa546f5f6e3230263bcb49000000000000000000000000eeeeeeeeeeeeeeeeeeeeeeeeeeeeeeeeeeeeeeee00000000000000000000000000000000000000000000000000000000000000020000000000000000000000000000000000000000000000000000000000093a8000000000000000000000000000000000000000000000000000000000000000010000000000000000000000000000000000000000000000000000000067255cd200000000000000000000000000000000000000000000000000000000000000000000000000000000000000000000000000000000000000000000000000000280000000000000000000000000000000000000000000000000000000000000000100000000000000000000000000000000000000000000000000000000000000200000000000000000000000008c1a617bdb47342f9c17ac8750e0b070c372c7210000000000000000000000000000000000000000000000000000000000000060000000000000000000000000000000000000000000000000000000000000000100000000000000000000000000000000000000000000000000000000000000000000000000000000000000000000000000000000000000000000000000000000",
          "blockHash": "0x06d62e9babf118653f22670a0c65b283a643627b6a23cf42eccf526fdc366a03",
          "blockNumber": "0x559c503",
          "transactionHash": "0x1e803bb695ae051d73bd2b5b2b6e35717d93f83d0d250d910bd4c1bea3fc5936",
          "transactionIndex": "0x3",
          "logIndex": "0x3",
          "removed": false
        }
      ],
      "logsBloom": "0x00000000000000000000000000000000000000000000000000000000080000000000000000040000000000000000000000000000000000000000000000010000000000000000000000000000000000000000000000000000000000000000000000000000000000000000020400000000000000000000000000000000000000000008000000000000000000000000000000000000000000000000000000000000000000000000000000000000000000000000000000000000000000000000000000000000000000000000000100000000000000000000000000000000000000000000800000000000000000000000800000000000000000000000000000000000",
      "type": "0x2",
      "transactionHash": "0x1e803bb695ae051d73bd2b5b2b6e35717d93f83d0d250d910bd4c1bea3fc5936",
      "transactionIndex": "0x3",
      "blockHash": "0x06d62e9babf118653f22670a0c65b283a643627b6a23cf42eccf526fdc366a03",
      "blockNumber": "0x559c503",
      "gasUsed": "0x1458b",
      "effectiveGasPrice": "0x5f5e100",
      "from": "0x8C1a617BdB47342F9C17Ac8750E0b070c372C721",
      "to": "0xBCd5762cF9B07EF5597014c350CE2efB2b0DB2D2",
      "contractAddress": null,
      "gasUsedForL1": "0x0",
      "l1BlockNumber": "0x694c4e"
    }
  ],
  "libraries": [],
  "pending": [],
  "returns": {},
  "timestamp": 1729292247,
  "chain": 421614,
  "commit": "d30e9f1"
}