{
  "transactions": [
    {
      "hash": "0xad04df9f74e90813e97680a1445bf7f6e403e1df916890075e98c8079097a142",
      "transactionType": "CALL",
      "contractName": null,
      "contractAddress": "0x539ce371fcb2af97ffef3c013b760d9e87b5de34",
      "function": "requestCrossChainCall((bytes32,(bytes32,bytes,uint256)[],uint256,bytes32,uint256,bytes32,bytes32,bytes32,uint256,uint256,uint256,uint256,bytes[]))",
      "arguments": [
        "(0x0000000000000000000000000000000000000000000000000000000000000000, [(0x0000000000000000000000008c1a617bdb47342f9c17ac8750e0b070c372c721, 0x, 100000000000000)], 0, 0x0000000000000000000000000000000000000000000000000000000000000000, 84532, 0x000000000000000000000000fce77110df39c54681a0769eb515cce862d074d9, 0x0000000000000000000000004c8ba32a5dac2a720bb35cedb51d6b067d104205, 0x000000000000000000000000eeeeeeeeeeeeeeeeeeeeeeeeeeeeeeeeeeeeeeee, 200000000000000, 604800, 0, 1735249293, [])"
      ],
      "transaction": {
        "from": "0x8c1a617bdb47342f9c17ac8750e0b070c372c721",
        "to": "0x539ce371fcb2af97ffef3c013b760d9e87b5de34",
        "gas": "0x6328d",
        "value": "0xb5e620f48000",
        "input": "0x6c676dbe0000000000000000000000000000000000000000000000000000000000000020000000000000000000000000000000000000000000000000000000000000000000000000000000000000000000000000000000000000000000000000000001a0000000000000000000000000000000000000000000000000000000000000000000000000000000000000000000000000000000000000000000000000000000000000000000000000000000000000000000000000000000000000000000014a34000000000000000000000000fce77110df39c54681a0769eb515cce862d074d90000000000000000000000004c8ba32a5dac2a720bb35cedb51d6b067d104205000000000000000000000000eeeeeeeeeeeeeeeeeeeeeeeeeeeeeeeeeeeeeeee0000000000000000000000000000000000000000000000000000b5e620f480000000000000000000000000000000000000000000000000000000000000093a80000000000000000000000000000000000000000000000000000000000000000000000000000000000000000000000000000000000000000000000000676dcd8d0000000000000000000000000000000000000000000000000000000000000260000000000000000000000000000000000000000000000000000000000000000100000000000000000000000000000000000000000000000000000000000000200000000000000000000000008c1a617bdb47342f9c17ac8750e0b070c372c721000000000000000000000000000000000000000000000000000000000000006000000000000000000000000000000000000000000000000000005af3107a400000000000000000000000000000000000000000000000000000000000000000000000000000000000000000000000000000000000000000000000000000000000",
        "nonce": "0x2b",
        "chainId": "0x66eee"
      },
      "additionalContracts": [],
      "isFixedGasLimit": false
    }
  ],
  "receipts": [
    {
      "status": "0x1",
      "cumulativeGasUsed": "0x6244e",
      "logs": [
        {
          "address": "0x539ce371fcb2af97ffef3c013b760d9e87b5de34",
          "topics": [
            "0x513fade1f2861a5deef5d7a92a5b2ca923eae36c137aa45ebe2ecc62ae3fbf07",
            "0x73a6ef4bcfd1c0a014397cc27b24aa7b76e4378d4ea99f72a94e59d360792dbb"
          ],
          "data": "0x00000000000000000000000000000000000000000000000000000000000000200000000000000000000000008c1a617bdb47342f9c17ac8750e0b070c372c72100000000000000000000000000000000000000000000000000000000000001a00000000000000000000000000000000000000000000000000000000000066eee000000000000000000000000539ce371fcb2af97ffef3c013b760d9e87b5de340000000000000000000000000000000000000000000000000000000000014a34000000000000000000000000fce77110df39c54681a0769eb515cce862d074d90000000000000000000000004c8ba32a5dac2a720bb35cedb51d6b067d104205000000000000000000000000eeeeeeeeeeeeeeeeeeeeeeeeeeeeeeeeeeeeeeee0000000000000000000000000000000000000000000000000000b5e620f480000000000000000000000000000000000000000000000000000000000000093a80000000000000000000000000000000000000000000000000000000000000000100000000000000000000000000000000000000000000000000000000676dcd8d0000000000000000000000000000000000000000000000000000000000000260000000000000000000000000000000000000000000000000000000000000000100000000000000000000000000000000000000000000000000000000000000200000000000000000000000008c1a617bdb47342f9c17ac8750e0b070c372c721000000000000000000000000000000000000000000000000000000000000006000000000000000000000000000000000000000000000000000005af3107a400000000000000000000000000000000000000000000000000000000000000000000000000000000000000000000000000000000000000000000000000000000000",
          "blockHash": "0x6e873e9f5fa0962a0a93923056e773946f4ddf62e25fde8253814d452e68e3e9",
          "blockNumber": "0x655d73f",
          "transactionHash": "0xad04df9f74e90813e97680a1445bf7f6e403e1df916890075e98c8079097a142",
          "transactionIndex": "0x2",
          "logIndex": "0x1",
          "removed": false
        }
      ],
      "logsBloom": "0x00000000000000000000000000000008000000000008000000000000000000000000000000000000000000000000000000000000008000400000000000000000000000000000000000000000000000000000000004000000000020000000000000000000000000001000000000000000100000000000000000000000000000000000000000000000000000000000000000000000000000000000000000000000000000000000000000000000000000000000000000000000000000000000000000000000000000000000000000010000000000000000000000000000000000000000000000000000000000000000000000000000000000000000000000000000",
      "type": "0x2",
      "transactionHash": "0xad04df9f74e90813e97680a1445bf7f6e403e1df916890075e98c8079097a142",
      "transactionIndex": "0x2",
      "blockHash": "0x6e873e9f5fa0962a0a93923056e773946f4ddf62e25fde8253814d452e68e3e9",
      "blockNumber": "0x655d73f",
      "gasUsed": "0x40255",
      "effectiveGasPrice": "0x5f5e100",
      "from": "0x8c1a617bdb47342f9c17ac8750e0b070c372c721",
      "to": "0x539ce371fcb2af97ffef3c013b760d9e87b5de34",
      "contractAddress": null,
      "gasUsedForL1": "0x2c4d0",
      "l1BlockNumber": "0x6ee040"
    }
  ],
  "libraries": [],
  "pending": [],
  "returns": {},
  "timestamp": 1734039698,
  "chain": 421614,
  "commit": "b90d4d0"
}