{
  "transactions": [
    {
      "hash": "0x7aa15f9ef8067a28601bbc2db8e1d88cc83a15359dd9ca3b051acf8ca8d9d14b",
      "transactionType": "CALL",
      "contractName": "RIP7755Outbox",
      "contractAddress": "0xBCd5762cF9B07EF5597014c350CE2efB2b0DB2D2",
      "function": "requestCrossChainCall((address,(address,bytes,uint256)[],address,uint256,address,address,bytes32,address,uint256,uint256,uint256,uint256,address,bytes))",
      "arguments": [
        "(0x8C1a617BdB47342F9C17Ac8750E0b070c372C721, [(0x8C1a617BdB47342F9C17Ac8750E0b070c372C721, 0x, 1)], 0x062fBdCfd17A0346D2A9d89FE233bbAdBd1DC14C, 84532, 0xB482b292878FDe64691d028A2237B34e91c7c7ea, 0x218CD9489199F321E1177b56385d333c5B598629, 0xa6eef7e35abe7026729641147f7915573c7e97b47efa546f5f6e3230263bcb49, 0xEeeeeEeeeEeEeeEeEeEeeEEEeeeeEeeeeeeeEEeE, 2, 604800, 0, 1730592776, 0x0000000000000000000000000000000000000000, 0x)"
      ],
      "transaction": {
        "from": "0x8C1a617BdB47342F9C17Ac8750E0b070c372C721",
        "to": "0xBCd5762cF9B07EF5597014c350CE2efB2b0DB2D2",
        "gas": "0x154aa",
        "value": "0x2",
        "input": "0xe786188e00000000000000000000000000000000000000000000000000000000000000200000000000000000000000008c1a617bdb47342f9c17ac8750e0b070c372c72100000000000000000000000000000000000000000000000000000000000001c0000000000000000000000000062fbdcfd17a0346d2a9d89fe233bbadbd1dc14c0000000000000000000000000000000000000000000000000000000000014a34000000000000000000000000b482b292878fde64691d028a2237b34e91c7c7ea000000000000000000000000218cd9489199f321e1177b56385d333c5b598629a6eef7e35abe7026729641147f7915573c7e97b47efa546f5f6e3230263bcb49000000000000000000000000eeeeeeeeeeeeeeeeeeeeeeeeeeeeeeeeeeeeeeee00000000000000000000000000000000000000000000000000000000000000020000000000000000000000000000000000000000000000000000000000093a800000000000000000000000000000000000000000000000000000000000000000000000000000000000000000000000000000000000000000000000006726c00800000000000000000000000000000000000000000000000000000000000000000000000000000000000000000000000000000000000000000000000000000280000000000000000000000000000000000000000000000000000000000000000100000000000000000000000000000000000000000000000000000000000000200000000000000000000000008c1a617bdb47342f9c17ac8750e0b070c372c7210000000000000000000000000000000000000000000000000000000000000060000000000000000000000000000000000000000000000000000000000000000100000000000000000000000000000000000000000000000000000000000000000000000000000000000000000000000000000000000000000000000000000000",
        "nonce": "0xf",
        "chainId": "0x66eee"
      },
      "additionalContracts": [],
      "isFixedGasLimit": false
    }
  ],
  "receipts": [
    {
      "status": "0x1",
      "cumulativeGasUsed": "0x102bf",
      "logs": [
        {
          "address": "0xBCd5762cF9B07EF5597014c350CE2efB2b0DB2D2",
          "topics": [
            "0x91466a77985019372d6bde6728a808e42b6db50de58526264b5b3716bf7d11de",
            "0xaa370ec396fabc3c9377bc6a601477ca59419cae9f7c7400c92b2ddbdec760a9"
          ],
          "data": "0x00000000000000000000000000000000000000000000000000000000000000200000000000000000000000008c1a617bdb47342f9c17ac8750e0b070c372c72100000000000000000000000000000000000000000000000000000000000001c0000000000000000000000000062fbdcfd17a0346d2a9d89fe233bbadbd1dc14c0000000000000000000000000000000000000000000000000000000000014a34000000000000000000000000b482b292878fde64691d028a2237b34e91c7c7ea000000000000000000000000218cd9489199f321e1177b56385d333c5b598629a6eef7e35abe7026729641147f7915573c7e97b47efa546f5f6e3230263bcb49000000000000000000000000eeeeeeeeeeeeeeeeeeeeeeeeeeeeeeeeeeeeeeee00000000000000000000000000000000000000000000000000000000000000020000000000000000000000000000000000000000000000000000000000093a800000000000000000000000000000000000000000000000000000000000000002000000000000000000000000000000000000000000000000000000006726c00800000000000000000000000000000000000000000000000000000000000000000000000000000000000000000000000000000000000000000000000000000280000000000000000000000000000000000000000000000000000000000000000100000000000000000000000000000000000000000000000000000000000000200000000000000000000000008c1a617bdb47342f9c17ac8750e0b070c372c7210000000000000000000000000000000000000000000000000000000000000060000000000000000000000000000000000000000000000000000000000000000100000000000000000000000000000000000000000000000000000000000000000000000000000000000000000000000000000000000000000000000000000000",
          "blockHash": "0x8ac84b2b9c24cb8cc8e24a494883ca22d50fb33b239494ef3918f8ecda909e3f",
          "blockNumber": "0x55e0e1a",
          "transactionHash": "0x7aa15f9ef8067a28601bbc2db8e1d88cc83a15359dd9ca3b051acf8ca8d9d14b",
          "transactionIndex": "0x1",
          "logIndex": "0x0",
          "removed": false
        }
      ],
      "logsBloom": "0x00000000200000000000000000000000000000000000000000000000000000000000000000040000000000000000000000000000000000000000000000010000000000000000000000000000000000000000000000000000000000000000000000000000000000000000020400000000000000000008000000000000000000000008000000000000000000000000000000000000000000000000000000000000000000000000000000000000000000000000000000000000000000000800000000000000000000000000000100000000000000000000000000000000000000000000000000000000000000000000000000000000000000000000000000000000",
      "type": "0x2",
      "transactionHash": "0x7aa15f9ef8067a28601bbc2db8e1d88cc83a15359dd9ca3b051acf8ca8d9d14b",
      "transactionIndex": "0x1",
      "blockHash": "0x8ac84b2b9c24cb8cc8e24a494883ca22d50fb33b239494ef3918f8ecda909e3f",
      "blockNumber": "0x55e0e1a",
      "gasUsed": "0x102bf",
      "effectiveGasPrice": "0x5f5e100",
      "from": "0x8C1a617BdB47342F9C17Ac8750E0b070c372C721",
      "to": "0xBCd5762cF9B07EF5597014c350CE2efB2b0DB2D2",
      "contractAddress": null,
      "gasUsedForL1": "0x0",
      "l1BlockNumber": "0x696505"
    }
  ],
  "libraries": [],
  "pending": [],
  "returns": {},
  "timestamp": 1729383181,
  "chain": 421614,
  "commit": "6bfa875"
}