{
  "transactions": [
    {
      "hash": "0x02ac110b842e6095adac01b917484aa0348ac39806cb0b3e603623fefeebaace",
      "transactionType": "CALL",
      "contractName": null,
      "contractAddress": "0xf648758260bfa7a9dbe1b69f471b23afff1cba6e",
      "function": "sendMessage(string,string,bytes,bytes[])",
      "arguments": [
        "eip155:11155420",
        "0xcDdCD048d3AbdE4c917391f65fE296B64841619C",
        "0x0000000000000000000000000000000000000000000000000000000000000020000000000000000000000000000000000000000000000000000000000000000100000000000000000000000000000000000000000000000000000000000000200000000000000000000000008c1a617bdb47342f9c17ac8750e0b070c372c721000000000000000000000000000000000000000000000000000000000000006000000000000000000000000000000000000000000000000000005af3107a40000000000000000000000000000000000000000000000000000000000000000000",
        "[0xa362e5db000000000000000000000000eeeeeeeeeeeeeeeeeeeeeeeeeeeeeeeeeeeeeeee0000000000000000000000000000000000000000000000000000b5e620f48000, 0x84f550e00000000000000000000000000000000000000000000000000000000000093a80000000000000000000000000000000000000000000000000000000006779a235, 0xda07e15d0000000000000000000000007237bb8d1d38df8b473b5a38ed90088af162ad8e]"
      ],
      "transaction": {
        "from": "0x8c1a617bdb47342f9c17ac8750e0b070c372c721",
        "to": "0xf648758260bfa7a9dbe1b69f471b23afff1cba6e",
        "gas": "0x21cad",
        "value": "0xb5e620f48000",
        "input": "0x7cfd9bdc000000000000000000000000000000000000000000000000000000000000008000000000000000000000000000000000000000000000000000000000000000c000000000000000000000000000000000000000000000000000000000000001200000000000000000000000000000000000000000000000000000000000000220000000000000000000000000000000000000000000000000000000000000000f6569703135353a31313135353432300000000000000000000000000000000000000000000000000000000000000000000000000000000000000000000000002a3078634464434430343864334162644534633931373339316636356645323936423634383431363139430000000000000000000000000000000000000000000000000000000000000000000000000000000000000000000000000000000000e00000000000000000000000000000000000000000000000000000000000000020000000000000000000000000000000000000000000000000000000000000000100000000000000000000000000000000000000000000000000000000000000200000000000000000000000008c1a617bdb47342f9c17ac8750e0b070c372c721000000000000000000000000000000000000000000000000000000000000006000000000000000000000000000000000000000000000000000005af3107a400000000000000000000000000000000000000000000000000000000000000000000000000000000000000000000000000000000000000000000000000000000003000000000000000000000000000000000000000000000000000000000000006000000000000000000000000000000000000000000000000000000000000000e000000000000000000000000000000000000000000000000000000000000001600000000000000000000000000000000000000000000000000000000000000044a362e5db000000000000000000000000eeeeeeeeeeeeeeeeeeeeeeeeeeeeeeeeeeeeeeee0000000000000000000000000000000000000000000000000000b5e620f4800000000000000000000000000000000000000000000000000000000000000000000000000000000000000000000000000000000000000000000000004484f550e00000000000000000000000000000000000000000000000000000000000093a80000000000000000000000000000000000000000000000000000000006779a235000000000000000000000000000000000000000000000000000000000000000000000000000000000000000000000000000000000000000000000024da07e15d0000000000000000000000007237bb8d1d38df8b473b5a38ed90088af162ad8e00000000000000000000000000000000000000000000000000000000",
        "nonce": "0x47",
        "chainId": "0x66eee"
      },
      "additionalContracts": [],
      "isFixedGasLimit": false
    }
  ],
  "receipts": [
    {
      "status": "0x1",
      "cumulativeGasUsed": "0x311aa",
      "logs": [
        {
          "address": "0xf648758260bfa7a9dbe1b69f471b23afff1cba6e",
          "topics": [
            "0xa37ff6d366884aabcbf069aa27b0e52078eea55e90ad8fc2349cd0a2aac08298",
            "0x50383466ec5cd7e2a780a792fdc7a87f6b9699e3f62bf18741756ce3705d1ea0"
          ],
          "data": "0x00000000000000000000000000000000000000000000000000000000000000a0000000000000000000000000000000000000000000000000000000000000010000000000000000000000000000000000000000000000000000000000000001600000000000000000000000000000000000000000000000000000b5e620f48000000000000000000000000000000000000000000000000000000000000000026000000000000000000000000000000000000000000000000000000000000000386569703135353a3432313631343a3078463634383735383236306266413741396442653142363966343731623233416646663163426136450000000000000000000000000000000000000000000000000000000000000000000000000000003a6569703135353a31313135353432303a30786344644344303438643341626445346339313733393166363566453239364236343834313631394300000000000000000000000000000000000000000000000000000000000000000000000000e00000000000000000000000000000000000000000000000000000000000000020000000000000000000000000000000000000000000000000000000000000000100000000000000000000000000000000000000000000000000000000000000200000000000000000000000008c1a617bdb47342f9c17ac8750e0b070c372c721000000000000000000000000000000000000000000000000000000000000006000000000000000000000000000000000000000000000000000005af3107a40000000000000000000000000000000000000000000000000000000000000000000000000000000000000000000000000000000000000000000000000000000000500000000000000000000000000000000000000000000000000000000000000a0000000000000000000000000000000000000000000000000000000000000012000000000000000000000000000000000000000000000000000000000000001a0000000000000000000000000000000000000000000000000000000000000020000000000000000000000000000000000000000000000000000000000000002600000000000000000000000000000000000000000000000000000000000000044a362e5db000000000000000000000000eeeeeeeeeeeeeeeeeeeeeeeeeeeeeeeeeeeeeeee0000000000000000000000000000000000000000000000000000b5e620f4800000000000000000000000000000000000000000000000000000000000000000000000000000000000000000000000000000000000000000000000004484f550e00000000000000000000000000000000000000000000000000000000000093a80000000000000000000000000000000000000000000000000000000006779a235000000000000000000000000000000000000000000000000000000000000000000000000000000000000000000000000000000000000000000000024da07e15d0000000000000000000000007237bb8d1d38df8b473b5a38ed90088af162ad8e000000000000000000000000000000000000000000000000000000000000000000000000000000000000000000000000000000000000000000000024ce03fdab00000000000000000000000000000000000000000000000000000000000000030000000000000000000000000000000000000000000000000000000000000000000000000000000000000000000000000000000000000000000000243bd94e4c0000000000000000000000008c1a617bdb47342f9c17ac8750e0b070c372c72100000000000000000000000000000000000000000000000000000000",
          "blockHash": "0x970bf3f58ad1ec2048749a610cc5c21f28a1090c66e3d0acfcef9acd56838e0c",
          "blockNumber": "0x68503c6",
          "transactionHash": "0x02ac110b842e6095adac01b917484aa0348ac39806cb0b3e603623fefeebaace",
          "transactionIndex": "0x2",
          "logIndex": "0x1",
          "removed": false
        }
      ],
      "logsBloom": "0x00000000000000000000000000000000000000000000000000000000000000400000000000000000000000000000000000000000000000000000000000000000000000000040000000000000000000000000000000000000000000000400000000000000000000000000000000000000000000000000000000000000000000000000000000000000000000000000000000000000000000000000000000000000000000000000000000400000000000000400000000000000000000000000000000000000000000000000000000000000010000000000000000000000000000080000000000000000008000000000004000000000000000000000000000000000",
      "type": "0x2",
      "transactionHash": "0x02ac110b842e6095adac01b917484aa0348ac39806cb0b3e603623fefeebaace",
      "transactionIndex": "0x2",
      "blockHash": "0x970bf3f58ad1ec2048749a610cc5c21f28a1090c66e3d0acfcef9acd56838e0c",
      "blockNumber": "0x68503c6",
      "gasUsed": "0x19af7",
      "effectiveGasPrice": "0x5f5e100",
      "from": "0x8c1a617bdb47342f9c17ac8750e0b070c372c721",
      "to": "0xf648758260bfa7a9dbe1b69f471b23afff1cba6e",
      "contractAddress": null,
      "gasUsedForL1": "0x4ff",
      "l1BlockNumber": "0x6fcdd0"
    }
  ],
  "libraries": [],
  "pending": [],
  "returns": {},
  "timestamp": 1734815034,
  "chain": 421614,
  "commit": "7c9068b"
}