{
  "transactions": [
    {
      "hash": "0x3ff07e5862cf36243b3a677710b3d534397ed8b7391c6ca62036d7629b6c4530",
      "transactionType": "CALL",
      "contractName": null,
      "contractAddress": "0x3ed4f0892020a9c57586c33554032be00fe379e4",
      "function": "requestCrossChainCall((bytes32,(bytes32,bytes,uint256)[],uint256,bytes32,uint256,bytes32,bytes32,bytes32,uint256,uint256,uint256,uint256,bytes[]))",
      "arguments": [
        "(0x000000000000000000000000328809bc894f92807417d2dad6b7c998c1afdac6, [(0x0000000000000000000000008c1a617bdb47342f9c17ac8750e0b070c372c721, 0x, 1)], 0, 0x0000000000000000000000000000000000000000000000000000000000000000, 84532, 0x000000000000000000000000fce77110df39c54681a0769eb515cce862d074d9, 0x0000000000000000000000004c8ba32a5dac2a720bb35cedb51d6b067d104205, 0x000000000000000000000000eeeeeeeeeeeeeeeeeeeeeeeeeeeeeeeeeeeeeeee, 2, 604800, 0, 1735238875, [])"
      ],
      "transaction": {
        "from": "0x8c1a617bdb47342f9c17ac8750e0b070c372c721",
        "to": "0x3ed4f0892020a9c57586c33554032be00fe379e4",
        "gas": "0x1a21b",
        "value": "0x2",
        "input": "0x6c676dbe0000000000000000000000000000000000000000000000000000000000000020000000000000000000000000328809bc894f92807417d2dad6b7c998c1afdac600000000000000000000000000000000000000000000000000000000000001a0000000000000000000000000000000000000000000000000000000000000000000000000000000000000000000000000000000000000000000000000000000000000000000000000000000000000000000000000000000000000000000014a34000000000000000000000000fce77110df39c54681a0769eb515cce862d074d90000000000000000000000004c8ba32a5dac2a720bb35cedb51d6b067d104205000000000000000000000000eeeeeeeeeeeeeeeeeeeeeeeeeeeeeeeeeeeeeeee00000000000000000000000000000000000000000000000000000000000000020000000000000000000000000000000000000000000000000000000000093a80000000000000000000000000000000000000000000000000000000000000000000000000000000000000000000000000000000000000000000000000676da4db0000000000000000000000000000000000000000000000000000000000000260000000000000000000000000000000000000000000000000000000000000000100000000000000000000000000000000000000000000000000000000000000200000000000000000000000008c1a617bdb47342f9c17ac8750e0b070c372c7210000000000000000000000000000000000000000000000000000000000000060000000000000000000000000000000000000000000000000000000000000000100000000000000000000000000000000000000000000000000000000000000000000000000000000000000000000000000000000000000000000000000000000",
        "nonce": "0x1e",
        "chainId": "0x66eee"
      },
      "additionalContracts": [],
      "isFixedGasLimit": false
    }
  ],
  "receipts": [
    {
      "status": "0x1",
      "cumulativeGasUsed": "0x13e15",
      "logs": [
        {
          "address": "0x3ed4f0892020a9c57586c33554032be00fe379e4",
          "topics": [
            "0x513fade1f2861a5deef5d7a92a5b2ca923eae36c137aa45ebe2ecc62ae3fbf07",
            "0x63e1588318c040fe09b67b0f522119e8b9bdfa6719c5515a969413c48e48274b"
          ],
          "data": "0x00000000000000000000000000000000000000000000000000000000000000200000000000000000000000008c1a617bdb47342f9c17ac8750e0b070c372c72100000000000000000000000000000000000000000000000000000000000001a00000000000000000000000000000000000000000000000000000000000066eee0000000000000000000000003ed4f0892020a9c57586c33554032be00fe379e40000000000000000000000000000000000000000000000000000000000014a34000000000000000000000000fce77110df39c54681a0769eb515cce862d074d90000000000000000000000004c8ba32a5dac2a720bb35cedb51d6b067d104205000000000000000000000000eeeeeeeeeeeeeeeeeeeeeeeeeeeeeeeeeeeeeeee00000000000000000000000000000000000000000000000000000000000000020000000000000000000000000000000000000000000000000000000000093a80000000000000000000000000000000000000000000000000000000000000000100000000000000000000000000000000000000000000000000000000676da4db0000000000000000000000000000000000000000000000000000000000000260000000000000000000000000000000000000000000000000000000000000000100000000000000000000000000000000000000000000000000000000000000200000000000000000000000008c1a617bdb47342f9c17ac8750e0b070c372c7210000000000000000000000000000000000000000000000000000000000000060000000000000000000000000000000000000000000000000000000000000000100000000000000000000000000000000000000000000000000000000000000000000000000000000000000000000000000000000000000000000000000000000",
          "blockHash": "0x8225c0c79260e7f63d18ab38da78f15ad0ab902c77b83fc2b8d6bc1b7ee7a602",
          "blockNumber": "0x65536d8",
          "transactionHash": "0x3ff07e5862cf36243b3a677710b3d534397ed8b7391c6ca62036d7629b6c4530",
          "transactionIndex": "0x1",
          "logIndex": "0x0",
          "removed": false
        }
      ],
      "logsBloom": "0x00000004000000010000000000000000000000000008000000000000020000000000000000000000000000000000000000000000000000400000000000000000000000000000000000000000000000000000000000000000000000000000000000000000000000001000000000000000000000000000000000000000000000000000000000000000000000000000000000000000000000000000000000000000000000000000000000000000000000000000000000000000000000000000000000000000000000000040000000000000000000000000000000000010000000000000000000000400000000000000000000000000000000000000000000000000",
      "type": "0x2",
      "transactionHash": "0x3ff07e5862cf36243b3a677710b3d534397ed8b7391c6ca62036d7629b6c4530",
      "transactionIndex": "0x1",
      "blockHash": "0x8225c0c79260e7f63d18ab38da78f15ad0ab902c77b83fc2b8d6bc1b7ee7a602",
      "blockNumber": "0x65536d8",
      "gasUsed": "0x13e15",
      "effectiveGasPrice": "0x5f5e100",
      "from": "0x8c1a617bdb47342f9c17ac8750e0b070c372c721",
      "to": "0x3ed4f0892020a9c57586c33554032be00fe379e4",
      "contractAddress": null,
      "gasUsedForL1": "0x0",
      "l1BlockNumber": "0x6edd21"
    }
  ],
  "libraries": [],
  "pending": [],
  "returns": {},
  "timestamp": 1734029280,
  "chain": 421614,
  "commit": "cd422e4"
}