{
  "transactions": [
    {
      "hash": "0xc4341a6dcf570e878ceb7b2845747b1c63137984418417baf3c1733368551150",
      "transactionType": "CALL",
      "contractName": null,
      "contractAddress": "0xf648758260bfa7a9dbe1b69f471b23afff1cba6e",
      "function": "sendMessage(string,string,bytes,bytes[])",
      "arguments": [
        "eip155:84532",
        "0x4C1e8c60c3f07AD8A0d08FCD5Cf93f6b73dFeB76",
        "0x0000000000000000000000000000000000000000000000000000000000000020000000000000000000000000000000000000000000000000000000000000000100000000000000000000000000000000000000000000000000000000000000200000000000000000000000008c1a617bdb47342f9c17ac8750e0b070c372c721000000000000000000000000000000000000000000000000000000000000006000000000000000000000000000000000000000000000000000005af3107a40000000000000000000000000000000000000000000000000000000000000000000",
        "[0xa362e5db000000000000000000000000eeeeeeeeeeeeeeeeeeeeeeeeeeeeeeeeeeeeeeee0000000000000000000000000000000000000000000000000000b5e620f48000, 0x84f550e00000000000000000000000000000000000000000000000000000000000093a80000000000000000000000000000000000000000000000000000000006779a1ff, 0xda07e15d0000000000000000000000006602dc9b6bd964c2a11bbda9b2275308d1bbc14f]"
      ],
      "transaction": {
        "from": "0x8c1a617bdb47342f9c17ac8750e0b070c372c721",
        "to": "0xf648758260bfa7a9dbe1b69f471b23afff1cba6e",
        "gas": "0x273a9",
        "value": "0xb5e620f48000",
        "input": "0x7cfd9bdc000000000000000000000000000000000000000000000000000000000000008000000000000000000000000000000000000000000000000000000000000000c000000000000000000000000000000000000000000000000000000000000001200000000000000000000000000000000000000000000000000000000000000220000000000000000000000000000000000000000000000000000000000000000c6569703135353a38343533320000000000000000000000000000000000000000000000000000000000000000000000000000000000000000000000000000002a3078344331653863363063336630374144384130643038464344354366393366366237336446654237360000000000000000000000000000000000000000000000000000000000000000000000000000000000000000000000000000000000e00000000000000000000000000000000000000000000000000000000000000020000000000000000000000000000000000000000000000000000000000000000100000000000000000000000000000000000000000000000000000000000000200000000000000000000000008c1a617bdb47342f9c17ac8750e0b070c372c721000000000000000000000000000000000000000000000000000000000000006000000000000000000000000000000000000000000000000000005af3107a400000000000000000000000000000000000000000000000000000000000000000000000000000000000000000000000000000000000000000000000000000000003000000000000000000000000000000000000000000000000000000000000006000000000000000000000000000000000000000000000000000000000000000e000000000000000000000000000000000000000000000000000000000000001600000000000000000000000000000000000000000000000000000000000000044a362e5db000000000000000000000000eeeeeeeeeeeeeeeeeeeeeeeeeeeeeeeeeeeeeeee0000000000000000000000000000000000000000000000000000b5e620f4800000000000000000000000000000000000000000000000000000000000000000000000000000000000000000000000000000000000000000000000004484f550e00000000000000000000000000000000000000000000000000000000000093a80000000000000000000000000000000000000000000000000000000006779a1ff000000000000000000000000000000000000000000000000000000000000000000000000000000000000000000000000000000000000000000000024da07e15d0000000000000000000000006602dc9b6bd964c2a11bbda9b2275308d1bbc14f00000000000000000000000000000000000000000000000000000000",
        "nonce": "0x45",
        "chainId": "0x66eee"
      },
      "additionalContracts": [],
      "isFixedGasLimit": false
    }
  ],
  "receipts": [
    {
      "status": "0x1",
      "cumulativeGasUsed": "0x1ddb7",
      "logs": [
        {
          "address": "0xf648758260bfa7a9dbe1b69f471b23afff1cba6e",
          "topics": [
            "0xa37ff6d366884aabcbf069aa27b0e52078eea55e90ad8fc2349cd0a2aac08298",
            "0x314d370325bf3d6985a7d180a150393470be51ba05297cee96daa1e5db63954a"
          ],
          "data": "0x00000000000000000000000000000000000000000000000000000000000000a0000000000000000000000000000000000000000000000000000000000000010000000000000000000000000000000000000000000000000000000000000001600000000000000000000000000000000000000000000000000000b5e620f48000000000000000000000000000000000000000000000000000000000000000026000000000000000000000000000000000000000000000000000000000000000386569703135353a3432313631343a307846363438373538323630626641374139644265314236396634373162323341664666316342613645000000000000000000000000000000000000000000000000000000000000000000000000000000376569703135353a38343533323a30783443316538633630633366303741443841306430384643443543663933663662373364466542373600000000000000000000000000000000000000000000000000000000000000000000000000000000e00000000000000000000000000000000000000000000000000000000000000020000000000000000000000000000000000000000000000000000000000000000100000000000000000000000000000000000000000000000000000000000000200000000000000000000000008c1a617bdb47342f9c17ac8750e0b070c372c721000000000000000000000000000000000000000000000000000000000000006000000000000000000000000000000000000000000000000000005af3107a40000000000000000000000000000000000000000000000000000000000000000000000000000000000000000000000000000000000000000000000000000000000500000000000000000000000000000000000000000000000000000000000000a0000000000000000000000000000000000000000000000000000000000000012000000000000000000000000000000000000000000000000000000000000001a0000000000000000000000000000000000000000000000000000000000000020000000000000000000000000000000000000000000000000000000000000002600000000000000000000000000000000000000000000000000000000000000044a362e5db000000000000000000000000eeeeeeeeeeeeeeeeeeeeeeeeeeeeeeeeeeeeeeee0000000000000000000000000000000000000000000000000000b5e620f4800000000000000000000000000000000000000000000000000000000000000000000000000000000000000000000000000000000000000000000000004484f550e00000000000000000000000000000000000000000000000000000000000093a80000000000000000000000000000000000000000000000000000000006779a1ff000000000000000000000000000000000000000000000000000000000000000000000000000000000000000000000000000000000000000000000024da07e15d0000000000000000000000006602dc9b6bd964c2a11bbda9b2275308d1bbc14f000000000000000000000000000000000000000000000000000000000000000000000000000000000000000000000000000000000000000000000024ce03fdab00000000000000000000000000000000000000000000000000000000000000010000000000000000000000000000000000000000000000000000000000000000000000000000000000000000000000000000000000000000000000243bd94e4c0000000000000000000000008c1a617bdb47342f9c17ac8750e0b070c372c72100000000000000000000000000000000000000000000000000000000",
          "blockHash": "0x19231d544d5e27bde323d6c9ebdc65313252089fe1f8c8fcb0d3f471a694e346",
          "blockNumber": "0x68502f4",
          "transactionHash": "0xc4341a6dcf570e878ceb7b2845747b1c63137984418417baf3c1733368551150",
          "transactionIndex": "0x1",
          "logIndex": "0x0",
          "removed": false
        }
      ],
      "logsBloom": "0x00000000000000000000000000000000000000000000000010000000000000400000000000000000000000000000000000000000000000000000000000000000080000000040000000000000000000000000000000000000000000000400000000000000000000000000000000000000000000000000000000000000000000000000000000000000000000000000000000000000000000000000000000000010000000000000000000000000000000000400000000000000000000000000000000000000000000000000000000000000000000000000000000000000000000000000000000000000008000000000004000000000000000000000000000000000",
      "type": "0x2",
      "transactionHash": "0xc4341a6dcf570e878ceb7b2845747b1c63137984418417baf3c1733368551150",
      "transactionIndex": "0x1",
      "blockHash": "0x19231d544d5e27bde323d6c9ebdc65313252089fe1f8c8fcb0d3f471a694e346",
      "blockNumber": "0x68502f4",
      "gasUsed": "0x1ddb7",
      "effectiveGasPrice": "0x5f5e100",
      "from": "0x8c1a617bdb47342f9c17ac8750e0b070c372c721",
      "to": "0xf648758260bfa7a9dbe1b69f471b23afff1cba6e",
      "contractAddress": null,
      "gasUsedForL1": "0x517",
      "l1BlockNumber": "0x6fcdca"
    }
  ],
  "libraries": [],
  "pending": [],
  "returns": {},
  "timestamp": 1734814981,
  "chain": 421614,
  "commit": "7c9068b"
}