{
  "transactions": [
    {
      "hash": "0x0dcc9960ebe95d2632eefcee8e24e18ef261f613c3728f64c297afd948088b1c",
      "transactionType": "CALL",
      "contractName": null,
      "contractAddress": "0x3ed4f0892020a9c57586c33554032be00fe379e4",
      "function": "requestCrossChainCall((bytes32,(bytes32,bytes,uint256)[],uint256,bytes32,uint256,bytes32,bytes32,bytes32,uint256,uint256,uint256,uint256,bytes[]))",
      "arguments": [
        "(0x000000000000000000000000328809bc894f92807417d2dad6b7c998c1afdac6, [(0x0000000000000000000000008c1a617bdb47342f9c17ac8750e0b070c372c721, 0x, 1)], 0, 0x0000000000000000000000000000000000000000000000000000000000000000, 84532, 0x000000000000000000000000fce77110df39c54681a0769eb515cce862d074d9, 0x0000000000000000000000004c8ba32a5dac2a720bb35cedb51d6b067d104205, 0x000000000000000000000000eeeeeeeeeeeeeeeeeeeeeeeeeeeeeeeeeeeeeeee, 2, 604800, 0, 1735238899, [])"
      ],
      "transaction": {
        "from": "0x8c1a617bdb47342f9c17ac8750e0b070c372c721",
        "to": "0x3ed4f0892020a9c57586c33554032be00fe379e4",
        "gas": "0x14aed",
        "value": "0x2",
        "input": "0x6c676dbe0000000000000000000000000000000000000000000000000000000000000020000000000000000000000000328809bc894f92807417d2dad6b7c998c1afdac600000000000000000000000000000000000000000000000000000000000001a0000000000000000000000000000000000000000000000000000000000000000000000000000000000000000000000000000000000000000000000000000000000000000000000000000000000000000000000000000000000000000000014a34000000000000000000000000fce77110df39c54681a0769eb515cce862d074d90000000000000000000000004c8ba32a5dac2a720bb35cedb51d6b067d104205000000000000000000000000eeeeeeeeeeeeeeeeeeeeeeeeeeeeeeeeeeeeeeee00000000000000000000000000000000000000000000000000000000000000020000000000000000000000000000000000000000000000000000000000093a80000000000000000000000000000000000000000000000000000000000000000000000000000000000000000000000000000000000000000000000000676da4f30000000000000000000000000000000000000000000000000000000000000260000000000000000000000000000000000000000000000000000000000000000100000000000000000000000000000000000000000000000000000000000000200000000000000000000000008c1a617bdb47342f9c17ac8750e0b070c372c7210000000000000000000000000000000000000000000000000000000000000060000000000000000000000000000000000000000000000000000000000000000100000000000000000000000000000000000000000000000000000000000000000000000000000000000000000000000000000000000000000000000000000000",
        "nonce": "0x1f",
        "chainId": "0x66eee"
      },
      "additionalContracts": [],
      "isFixedGasLimit": false
    }
  ],
  "receipts": [
    {
      "status": "0x1",
      "cumulativeGasUsed": "0xfb49",
      "logs": [
        {
          "address": "0x3ed4f0892020a9c57586c33554032be00fe379e4",
          "topics": [
            "0x513fade1f2861a5deef5d7a92a5b2ca923eae36c137aa45ebe2ecc62ae3fbf07",
            "0x7605b0f550c3b2dc1308d2e784f56efdb6bbeff36e3de5c67a133719b6f3abc3"
          ],
          "data": "0x00000000000000000000000000000000000000000000000000000000000000200000000000000000000000008c1a617bdb47342f9c17ac8750e0b070c372c72100000000000000000000000000000000000000000000000000000000000001a00000000000000000000000000000000000000000000000000000000000066eee0000000000000000000000003ed4f0892020a9c57586c33554032be00fe379e40000000000000000000000000000000000000000000000000000000000014a34000000000000000000000000fce77110df39c54681a0769eb515cce862d074d90000000000000000000000004c8ba32a5dac2a720bb35cedb51d6b067d104205000000000000000000000000eeeeeeeeeeeeeeeeeeeeeeeeeeeeeeeeeeeeeeee00000000000000000000000000000000000000000000000000000000000000020000000000000000000000000000000000000000000000000000000000093a80000000000000000000000000000000000000000000000000000000000000000200000000000000000000000000000000000000000000000000000000676da4f30000000000000000000000000000000000000000000000000000000000000260000000000000000000000000000000000000000000000000000000000000000100000000000000000000000000000000000000000000000000000000000000200000000000000000000000008c1a617bdb47342f9c17ac8750e0b070c372c7210000000000000000000000000000000000000000000000000000000000000060000000000000000000000000000000000000000000000000000000000000000100000000000000000000000000000000000000000000000000000000000000000000000000000000000000000000000000000000000000000000000000000000",
          "blockHash": "0x91b5ed47ae8792aa3ed8c1fc142994c9be1d6841c7a4d97ea2b459cef9abc2f4",
          "blockNumber": "0x6553734",
          "transactionHash": "0x0dcc9960ebe95d2632eefcee8e24e18ef261f613c3728f64c297afd948088b1c",
          "transactionIndex": "0x1",
          "logIndex": "0x0",
          "removed": false
        }
      ],
      "logsBloom": "0x00000004000000010000000000000000000000000008000000000000000000000000000000000000000000000004000000000000000000400000000000000000000000000000000000000000000000000000000000000000000000000000000000000000000000001000000000000000000000000000000000000000000000000000000000000000000000000000040000000000000000000000000000000000000000000000000000000000000000000000000040000000000000000000000000000000000000000000000000000000000000000000000000000000000000000000000000000400000000000000000000000000000000000000000000000000",
      "type": "0x2",
      "transactionHash": "0x0dcc9960ebe95d2632eefcee8e24e18ef261f613c3728f64c297afd948088b1c",
      "transactionIndex": "0x1",
      "blockHash": "0x91b5ed47ae8792aa3ed8c1fc142994c9be1d6841c7a4d97ea2b459cef9abc2f4",
      "blockNumber": "0x6553734",
      "gasUsed": "0xfb49",
      "effectiveGasPrice": "0x5f5e100",
      "from": "0x8c1a617bdb47342f9c17ac8750e0b070c372c721",
      "to": "0x3ed4f0892020a9c57586c33554032be00fe379e4",
      "contractAddress": null,
      "gasUsedForL1": "0x0",
      "l1BlockNumber": "0x6edd24"
    }
  ],
  "libraries": [],
  "pending": [],
  "returns": {},
  "timestamp": 1734029305,
  "chain": 421614,
  "commit": "cd422e4"
}