{
  "transactions": [
    {
      "hash": "0xa9d209f39f51d1a8ff507810b6a3751905692a3a9f28e49aaac78969c7389aca",
      "transactionType": "CALL",
      "contractName": "RIP7755Outbox",
      "contractAddress": "0xBCd5762cF9B07EF5597014c350CE2efB2b0DB2D2",
      "function": "requestCrossChainCall((address,(address,bytes,uint256)[],address,uint256,address,address,bytes32,address,uint256,uint256,uint256,uint256,address,bytes))",
      "arguments": [
        "(0x8C1a617BdB47342F9C17Ac8750E0b070c372C721, [(0x8C1a617BdB47342F9C17Ac8750E0b070c372C721, 0x, 1)], 0x062fBdCfd17A0346D2A9d89FE233bbAdBd1DC14C, 84532, 0xB482b292878FDe64691d028A2237B34e91c7c7ea, 0x4C8BA32A5DAC2A720bb35CeDB51D6B067D104205, 0xa6eef7e35abe7026729641147f7915573c7e97b47efa546f5f6e3230263bcb49, 0xEeeeeEeeeEeEeeEeEeEeeEEEeeeeEeeeeeeeEEeE, 2, 604800, 0, 1730643405, 0x0000000000000000000000000000000000000000, 0x)"
      ],
      "transaction": {
        "from": "0x8C1a617BdB47342F9C17Ac8750E0b070c372C721",
        "to": "0xBCd5762cF9B07EF5597014c350CE2efB2b0DB2D2",
        "gas": "0x15cb4",
        "value": "0x2",
        "input": "0xe786188e00000000000000000000000000000000000000000000000000000000000000200000000000000000000000008c1a617bdb47342f9c17ac8750e0b070c372c72100000000000000000000000000000000000000000000000000000000000001c0000000000000000000000000062fbdcfd17a0346d2a9d89fe233bbadbd1dc14c0000000000000000000000000000000000000000000000000000000000014a34000000000000000000000000b482b292878fde64691d028a2237b34e91c7c7ea0000000000000000000000004c8ba32a5dac2a720bb35cedb51d6b067d104205a6eef7e35abe7026729641147f7915573c7e97b47efa546f5f6e3230263bcb49000000000000000000000000eeeeeeeeeeeeeeeeeeeeeeeeeeeeeeeeeeeeeeee00000000000000000000000000000000000000000000000000000000000000020000000000000000000000000000000000000000000000000000000000093a80000000000000000000000000000000000000000000000000000000000000000000000000000000000000000000000000000000000000000000000000672785cd00000000000000000000000000000000000000000000000000000000000000000000000000000000000000000000000000000000000000000000000000000280000000000000000000000000000000000000000000000000000000000000000100000000000000000000000000000000000000000000000000000000000000200000000000000000000000008c1a617bdb47342f9c17ac8750e0b070c372c7210000000000000000000000000000000000000000000000000000000000000060000000000000000000000000000000000000000000000000000000000000000100000000000000000000000000000000000000000000000000000000000000000000000000000000000000000000000000000000000000000000000000000000",
        "nonce": "0x10",
        "chainId": "0x66eee"
      },
      "additionalContracts": [],
      "isFixedGasLimit": false
    }
  ],
  "receipts": [
    {
      "status": "0x1",
      "cumulativeGasUsed": "0x107cc",
      "logs": [
        {
          "address": "0xBCd5762cF9B07EF5597014c350CE2efB2b0DB2D2",
          "topics": [
            "0x91466a77985019372d6bde6728a808e42b6db50de58526264b5b3716bf7d11de",
            "0x38e798f6702ea34633722ad6d8631be26dfed208dbd718408a2d3e67514c8f59"
          ],
          "data": "0x00000000000000000000000000000000000000000000000000000000000000200000000000000000000000008c1a617bdb47342f9c17ac8750e0b070c372c72100000000000000000000000000000000000000000000000000000000000001c0000000000000000000000000062fbdcfd17a0346d2a9d89fe233bbadbd1dc14c0000000000000000000000000000000000000000000000000000000000014a34000000000000000000000000b482b292878fde64691d028a2237b34e91c7c7ea0000000000000000000000004c8ba32a5dac2a720bb35cedb51d6b067d104205a6eef7e35abe7026729641147f7915573c7e97b47efa546f5f6e3230263bcb49000000000000000000000000eeeeeeeeeeeeeeeeeeeeeeeeeeeeeeeeeeeeeeee00000000000000000000000000000000000000000000000000000000000000020000000000000000000000000000000000000000000000000000000000093a80000000000000000000000000000000000000000000000000000000000000000300000000000000000000000000000000000000000000000000000000672785cd00000000000000000000000000000000000000000000000000000000000000000000000000000000000000000000000000000000000000000000000000000280000000000000000000000000000000000000000000000000000000000000000100000000000000000000000000000000000000000000000000000000000000200000000000000000000000008c1a617bdb47342f9c17ac8750e0b070c372c7210000000000000000000000000000000000000000000000000000000000000060000000000000000000000000000000000000000000000000000000000000000100000000000000000000000000000000000000000000000000000000000000000000000000000000000000000000000000000000000000000000000000000000",
          "blockHash": "0x1dc96ee06ccd5ddd03b651b31ebf1350d803524cda177ea852aa96274ee24bd6",
          "blockNumber": "0x5604ca3",
          "transactionHash": "0xa9d209f39f51d1a8ff507810b6a3751905692a3a9f28e49aaac78969c7389aca",
          "transactionIndex": "0x1",
          "logIndex": "0x0",
          "removed": false
        }
      ],
      "logsBloom": "0x00000000000000000000000000000000000000000000000000000000000000000000000000040000000000000000000000000000000000000000000000010000000000000000000000000000000000000000000000000000000000000000000000000210000000000000020400000000000000000000000000000000000000000008000000000000000000000000000000000000040000000000000000000000000000000000000000000000000000000000000000000000000000000000000000000000000000000000000100000000000000000000000000000000000000000000000000000000000000000000000000000000000000000000000000000000",
      "type": "0x2",
      "transactionHash": "0xa9d209f39f51d1a8ff507810b6a3751905692a3a9f28e49aaac78969c7389aca",
      "transactionIndex": "0x1",
      "blockHash": "0x1dc96ee06ccd5ddd03b651b31ebf1350d803524cda177ea852aa96274ee24bd6",
      "blockNumber": "0x5604ca3",
      "gasUsed": "0x107cc",
      "effectiveGasPrice": "0x5f5e100",
      "from": "0x8C1a617BdB47342F9C17Ac8750E0b070c372C721",
      "to": "0xBCd5762cF9B07EF5597014c350CE2efB2b0DB2D2",
      "contractAddress": null,
      "gasUsedForL1": "0x50d",
      "l1BlockNumber": "0x6972d0"
    }
  ],
  "libraries": [],
  "pending": [],
  "returns": {},
  "timestamp": 1729433810,
  "chain": 421614,
  "commit": "6bfa875"
}