{
  "transactions": [
    {
      "hash": "0xdf3da0758c86f4f933e081993cc443630898aa373dd2a6eec175f90e6bddd8c8",
      "transactionType": "CALL",
      "contractName": null,
      "contractAddress": "0x3ed4f0892020a9c57586c33554032be00fe379e4",
      "function": "requestCrossChainCall((bytes32,(bytes32,bytes,uint256)[],uint256,bytes32,uint256,bytes32,bytes32,bytes32,uint256,uint256,uint256,uint256,bytes[]))",
      "arguments": [
        "(0x000000000000000000000000328809bc894f92807417d2dad6b7c998c1afdac6, [(0x0000000000000000000000008c1a617bdb47342f9c17ac8750e0b070c372c721, 0x, 100000000000000)], 0, 0x0000000000000000000000000000000000000000000000000000000000000000, 84532, 0x000000000000000000000000fce77110df39c54681a0769eb515cce862d074d9, 0x0000000000000000000000004c8ba32a5dac2a720bb35cedb51d6b067d104205, 0x000000000000000000000000eeeeeeeeeeeeeeeeeeeeeeeeeeeeeeeeeeeeeeee, 200000000000000, 604800, 0, 1735243307, [])"
      ],
      "transaction": {
        "from": "0x8c1a617bdb47342f9c17ac8750e0b070c372c721",
        "to": "0x3ed4f0892020a9c57586c33554032be00fe379e4",
        "gas": "0x14b6b",
        "value": "0xb5e620f48000",
        "input": "0x6c676dbe0000000000000000000000000000000000000000000000000000000000000020000000000000000000000000328809bc894f92807417d2dad6b7c998c1afdac600000000000000000000000000000000000000000000000000000000000001a0000000000000000000000000000000000000000000000000000000000000000000000000000000000000000000000000000000000000000000000000000000000000000000000000000000000000000000000000000000000000000000014a34000000000000000000000000fce77110df39c54681a0769eb515cce862d074d90000000000000000000000004c8ba32a5dac2a720bb35cedb51d6b067d104205000000000000000000000000eeeeeeeeeeeeeeeeeeeeeeeeeeeeeeeeeeeeeeee0000000000000000000000000000000000000000000000000000b5e620f480000000000000000000000000000000000000000000000000000000000000093a80000000000000000000000000000000000000000000000000000000000000000000000000000000000000000000000000000000000000000000000000676db62b0000000000000000000000000000000000000000000000000000000000000260000000000000000000000000000000000000000000000000000000000000000100000000000000000000000000000000000000000000000000000000000000200000000000000000000000008c1a617bdb47342f9c17ac8750e0b070c372c721000000000000000000000000000000000000000000000000000000000000006000000000000000000000000000000000000000000000000000005af3107a400000000000000000000000000000000000000000000000000000000000000000000000000000000000000000000000000000000000000000000000000000000000",
        "nonce": "0x28",
        "chainId": "0x66eee"
      },
      "additionalContracts": [],
      "isFixedGasLimit": false
    }
  ],
  "receipts": [
    {
      "status": "0x1",
      "cumulativeGasUsed": "0x6d22a",
      "logs": [
        {
          "address": "0x3ed4f0892020a9c57586c33554032be00fe379e4",
          "topics": [
            "0x513fade1f2861a5deef5d7a92a5b2ca923eae36c137aa45ebe2ecc62ae3fbf07",
            "0x40ca94bbe56bd8d0edbdbe248681f7b64bb2c808ea30913684bcf1aa56ff6927"
          ],
          "data": "0x00000000000000000000000000000000000000000000000000000000000000200000000000000000000000008c1a617bdb47342f9c17ac8750e0b070c372c72100000000000000000000000000000000000000000000000000000000000001a00000000000000000000000000000000000000000000000000000000000066eee0000000000000000000000003ed4f0892020a9c57586c33554032be00fe379e40000000000000000000000000000000000000000000000000000000000014a34000000000000000000000000fce77110df39c54681a0769eb515cce862d074d90000000000000000000000004c8ba32a5dac2a720bb35cedb51d6b067d104205000000000000000000000000eeeeeeeeeeeeeeeeeeeeeeeeeeeeeeeeeeeeeeee0000000000000000000000000000000000000000000000000000b5e620f480000000000000000000000000000000000000000000000000000000000000093a80000000000000000000000000000000000000000000000000000000000000000b00000000000000000000000000000000000000000000000000000000676db62b0000000000000000000000000000000000000000000000000000000000000260000000000000000000000000000000000000000000000000000000000000000100000000000000000000000000000000000000000000000000000000000000200000000000000000000000008c1a617bdb47342f9c17ac8750e0b070c372c721000000000000000000000000000000000000000000000000000000000000006000000000000000000000000000000000000000000000000000005af3107a400000000000000000000000000000000000000000000000000000000000000000000000000000000000000000000000000000000000000000000000000000000000",
          "blockHash": "0x66ee353869bf7cafb1ccd69e91d542ed619d0dcc7d2a6ce21979ff1e8374bc8f",
          "blockNumber": "0x6557b8b",
          "transactionHash": "0xdf3da0758c86f4f933e081993cc443630898aa373dd2a6eec175f90e6bddd8c8",
          "transactionIndex": "0x3",
          "logIndex": "0x4",
          "removed": false
        }
      ],
      "logsBloom": "0x00000004000000010000000000000000000000000008000000000000000000000000000000000000000000000000000000000000000000400000000000000000000000000000000000000000004000000000000000000000000000000000000000000000000000001000000000000000000000000000000000000000000000000000000000000000000000000004000000000000000000000000000000004000000000000000000000000000000000000000000000000000000000000000000000000000000000000000000000000000000000000000000000000000000000000000000000000400000000000000000000000000000000000000000000000000",
      "type": "0x2",
      "transactionHash": "0xdf3da0758c86f4f933e081993cc443630898aa373dd2a6eec175f90e6bddd8c8",
      "transactionIndex": "0x3",
      "blockHash": "0x66ee353869bf7cafb1ccd69e91d542ed619d0dcc7d2a6ce21979ff1e8374bc8f",
      "blockNumber": "0x6557b8b",
      "gasUsed": "0xfba9",
      "effectiveGasPrice": "0x5f5e100",
      "from": "0x8c1a617bdb47342f9c17ac8750e0b070c372c721",
      "to": "0x3ed4f0892020a9c57586c33554032be00fe379e4",
      "contractAddress": null,
      "gasUsedForL1": "0x0",
      "l1BlockNumber": "0x6ede72"
    }
  ],
  "libraries": [],
  "pending": [],
  "returns": {},
  "timestamp": 1734033712,
  "chain": 421614,
  "commit": "cd422e4"
}