{
  "transactions": [
    {
      "hash": "0x6d7a75251433dc3385aad44bc217f63d815b74c8d51e9f4baf5fd98284f4fec1",
      "transactionType": "CALL",
      "contractName": null,
      "contractAddress": "0x778bbc9031303111863556a839f942fa57958dab",
      "function": "sendMessage(string,string,bytes,bytes[])",
      "arguments": [
        "eip155:84532",
        "0x27B9e81C31eab9fdB8Ed1280680b23299FBa4cd8",
        "0x0000000000000000000000000000000000000000000000000000000000000020000000000000000000000000000000000000000000000000000000000000000100000000000000000000000000000000000000000000000000000000000000200000000000000000000000008c1a617bdb47342f9c17ac8750e0b070c372c721000000000000000000000000000000000000000000000000000000000000006000000000000000000000000000000000000000000000000000005af3107a40000000000000000000000000000000000000000000000000000000000000000000",
        "[0xa362e5db000000000000000000000000eeeeeeeeeeeeeeeeeeeeeeeeeeeeeeeeeeeeeeee0000000000000000000000000000000000000000000000000000b5e620f48000, 0x84f550e00000000000000000000000000000000000000000000000000000000000093a8000000000000000000000000000000000000000000000000000000000677989ac]"
      ],
      "transaction": {
        "from": "0x8c1a617bdb47342f9c17ac8750e0b070c372c721",
        "to": "0x778bbc9031303111863556a839f942fa57958dab",
        "gas": "0x21396",
        "value": "0xb5e620f48000",
        "input": "0x7cfd9bdc000000000000000000000000000000000000000000000000000000000000008000000000000000000000000000000000000000000000000000000000000000c000000000000000000000000000000000000000000000000000000000000001200000000000000000000000000000000000000000000000000000000000000220000000000000000000000000000000000000000000000000000000000000000c6569703135353a38343533320000000000000000000000000000000000000000000000000000000000000000000000000000000000000000000000000000002a3078323742396538314333316561623966644238456431323830363830623233323939464261346364380000000000000000000000000000000000000000000000000000000000000000000000000000000000000000000000000000000000e00000000000000000000000000000000000000000000000000000000000000020000000000000000000000000000000000000000000000000000000000000000100000000000000000000000000000000000000000000000000000000000000200000000000000000000000008c1a617bdb47342f9c17ac8750e0b070c372c721000000000000000000000000000000000000000000000000000000000000006000000000000000000000000000000000000000000000000000005af3107a400000000000000000000000000000000000000000000000000000000000000000000000000000000000000000000000000000000000000000000000000000000002000000000000000000000000000000000000000000000000000000000000004000000000000000000000000000000000000000000000000000000000000000c00000000000000000000000000000000000000000000000000000000000000044a362e5db000000000000000000000000eeeeeeeeeeeeeeeeeeeeeeeeeeeeeeeeeeeeeeee0000000000000000000000000000000000000000000000000000b5e620f4800000000000000000000000000000000000000000000000000000000000000000000000000000000000000000000000000000000000000000000000004484f550e00000000000000000000000000000000000000000000000000000000000093a8000000000000000000000000000000000000000000000000000000000677989ac00000000000000000000000000000000000000000000000000000000",
        "nonce": "0x3e",
        "chainId": "0x66eee"
      },
      "additionalContracts": [],
      "isFixedGasLimit": false
    }
  ],
  "receipts": [
    {
      "status": "0x1",
      "cumulativeGasUsed": "0xaa339",
      "logs": [
        {
          "address": "0x778bbc9031303111863556a839f942fa57958dab",
          "topics": [
            "0xa37ff6d366884aabcbf069aa27b0e52078eea55e90ad8fc2349cd0a2aac08298",
            "0xdfc6cad6f95ce2659d4bea6a2f0b9b1ce08cfd1548e0fc448466d1dd01cb9538"
          ],
          "data": "0x00000000000000000000000000000000000000000000000000000000000000a0000000000000000000000000000000000000000000000000000000000000010000000000000000000000000000000000000000000000000000000000000001600000000000000000000000000000000000000000000000000000b5e620f48000000000000000000000000000000000000000000000000000000000000000026000000000000000000000000000000000000000000000000000000000000000386569703135353a3432313631343a307837373842424339303331333033313131383633353536413833396639343266613537393538644142000000000000000000000000000000000000000000000000000000000000000000000000000000376569703135353a38343533323a30783237423965383143333165616239666442384564313238303638306232333239394642613463643800000000000000000000000000000000000000000000000000000000000000000000000000000000e00000000000000000000000000000000000000000000000000000000000000020000000000000000000000000000000000000000000000000000000000000000100000000000000000000000000000000000000000000000000000000000000200000000000000000000000008c1a617bdb47342f9c17ac8750e0b070c372c721000000000000000000000000000000000000000000000000000000000000006000000000000000000000000000000000000000000000000000005af3107a40000000000000000000000000000000000000000000000000000000000000000000000000000000000000000000000000000000000000000000000000000000000400000000000000000000000000000000000000000000000000000000000000800000000000000000000000000000000000000000000000000000000000000100000000000000000000000000000000000000000000000000000000000000018000000000000000000000000000000000000000000000000000000000000001e00000000000000000000000000000000000000000000000000000000000000044a362e5db000000000000000000000000eeeeeeeeeeeeeeeeeeeeeeeeeeeeeeeeeeeeeeee0000000000000000000000000000000000000000000000000000b5e620f4800000000000000000000000000000000000000000000000000000000000000000000000000000000000000000000000000000000000000000000000004484f550e00000000000000000000000000000000000000000000000000000000000093a8000000000000000000000000000000000000000000000000000000000677989ac000000000000000000000000000000000000000000000000000000000000000000000000000000000000000000000000000000000000000000000024ce03fdab00000000000000000000000000000000000000000000000000000000000000060000000000000000000000000000000000000000000000000000000000000000000000000000000000000000000000000000000000000000000000243bd94e4c0000000000000000000000008c1a617bdb47342f9c17ac8750e0b070c372c72100000000000000000000000000000000000000000000000000000000",
          "blockHash": "0x730df14856c80cfc7a01580e12246c99324aabf232b058f26da7749b5899e431",
          "blockNumber": "0x684a209",
          "transactionHash": "0x6d7a75251433dc3385aad44bc217f63d815b74c8d51e9f4baf5fd98284f4fec1",
          "transactionIndex": "0x4",
          "logIndex": "0x9",
          "removed": false
        }
      ],
      "logsBloom": "0x00000000000000000000000000000000000000000000000000000000000000000000000000000000000000000000000000000000000000000000000000000000000000000040000000000000000002000000000000000000000000000400000000000000000000000000000000000000000000000000000000000002000000480000000000000000000000010000000000000000000000000000000000000000000000000100000000000000000000000000000000000000000000000000000000000000000000000000000000000000000000000000000000000000000000000000000000000000000000000000004000000000000000000000000000000000",
      "type": "0x2",
      "transactionHash": "0x6d7a75251433dc3385aad44bc217f63d815b74c8d51e9f4baf5fd98284f4fec1",
      "transactionIndex": "0x4",
      "blockHash": "0x730df14856c80cfc7a01580e12246c99324aabf232b058f26da7749b5899e431",
      "blockNumber": "0x684a209",
      "gasUsed": "0x19252",
      "effectiveGasPrice": "0x5f5e100",
      "from": "0x8c1a617bdb47342f9c17ac8750e0b070c372c721",
      "to": "0x778bbc9031303111863556a839f942fa57958dab",
      "contractAddress": null,
      "gasUsedForL1": "0xd51",
      "l1BlockNumber": "0x6fcbe7"
    }
  ],
  "libraries": [],
  "pending": [],
  "returns": {},
  "timestamp": 1734808753,
  "chain": 421614,
  "commit": "7c9068b"
}