{
  "transactions": [
    {
      "hash": "0xb591d539b8ff35c48857283855e8f549b6c24b1c5167a90dc94fc65133d3b9d0",
      "transactionType": "CALL",
      "contractName": null,
      "contractAddress": "0x09f9e99d379a9963fe13814b31b90ba81bf9a74f",
      "function": "sendMessage(bytes32,bytes32,bytes,bytes[])",
      "arguments": [
        "0x0000000000000000000000000000000000000000000000000000000000aa37dc",
        "0x0000000000000000000000009435b271fb6b525b87171f92379a5c85fef4d4cb",
        "0x0000000000000000000000000000000000000000000000000000000000000020000000000000000000000000000000000000000000000000000000000000000100000000000000000000000000000000000000000000000000000000000000200000000000000000000000008c1a617bdb47342f9c17ac8750e0b070c372c721000000000000000000000000000000000000000000000000000000000000006000000000000000000000000000000000000000000000000000005af3107a40000000000000000000000000000000000000000000000000000000000000000000",
        "[0xa362e5db000000000000000000000000eeeeeeeeeeeeeeeeeeeeeeeeeeeeeeeeeeeeeeee0000000000000000000000000000000000000000000000000000b5e620f48000, 0x84f550e00000000000000000000000000000000000000000000000000000000000000e100000000000000000000000000000000000000000000000000000000067ba27bc, 0xda07e15d000000000000000000000000ce8b068d4f7f2eb3bdafa72ec3c4fee78cf9ccf7, 0xdff49bf10000000000000000000000000000000000000000000000000000000000aa37dc]"
      ],
      "transaction": {
        "from": "0x8c1a617bdb47342f9c17ac8750e0b070c372c721",
        "to": "0x09f9e99d379a9963fe13814b31b90ba81bf9a74f",
        "gas": "0x1e85f",
        "value": "0xb5e620f48000",
        "input": "0xfff34eb90000000000000000000000000000000000000000000000000000000000aa37dc0000000000000000000000009435b271fb6b525b87171f92379a5c85fef4d4cb0000000000000000000000000000000000000000000000000000000000000080000000000000000000000000000000000000000000000000000000000000018000000000000000000000000000000000000000000000000000000000000000e00000000000000000000000000000000000000000000000000000000000000020000000000000000000000000000000000000000000000000000000000000000100000000000000000000000000000000000000000000000000000000000000200000000000000000000000008c1a617bdb47342f9c17ac8750e0b070c372c721000000000000000000000000000000000000000000000000000000000000006000000000000000000000000000000000000000000000000000005af3107a40000000000000000000000000000000000000000000000000000000000000000000000000000000000000000000000000000000000000000000000000000000000400000000000000000000000000000000000000000000000000000000000000800000000000000000000000000000000000000000000000000000000000000100000000000000000000000000000000000000000000000000000000000000018000000000000000000000000000000000000000000000000000000000000001e00000000000000000000000000000000000000000000000000000000000000044a362e5db000000000000000000000000eeeeeeeeeeeeeeeeeeeeeeeeeeeeeeeeeeeeeeee0000000000000000000000000000000000000000000000000000b5e620f4800000000000000000000000000000000000000000000000000000000000000000000000000000000000000000000000000000000000000000000000004484f550e00000000000000000000000000000000000000000000000000000000000000e100000000000000000000000000000000000000000000000000000000067ba27bc000000000000000000000000000000000000000000000000000000000000000000000000000000000000000000000000000000000000000000000024da07e15d000000000000000000000000ce8b068d4f7f2eb3bdafa72ec3c4fee78cf9ccf7000000000000000000000000000000000000000000000000000000000000000000000000000000000000000000000000000000000000000000000024dff49bf10000000000000000000000000000000000000000000000000000000000aa37dc00000000000000000000000000000000000000000000000000000000",
        "nonce": "0x73",
        "chainId": "0x66eee"
      },
      "additionalContracts": [],
      "isFixedGasLimit": false
    }
  ],
  "receipts": [
    {
      "status": "0x1",
      "cumulativeGasUsed": "0x173eb",
      "logs": [
        {
          "address": "0x09f9e99d379a9963fe13814b31b90ba81bf9a74f",
          "topics": [
            "0x14ccce6e0b6e428805c2f007dfbad914d0ae8dd4514a970138e0abe3d6adeaa9",
            "0x9897fa01324714a9951315a0d21311e17bc8f2df493312563fcf347f9c8f8b3f"
          ],
          "data": "0x0000000000000000000000000000000000000000000000000000000000066eee00000000000000000000000009f9e99d379a9963fe13814b31b90ba81bf9a74f0000000000000000000000000000000000000000000000000000000000aa37dc0000000000000000000000009435b271fb6b525b87171f92379a5c85fef4d4cb00000000000000000000000000000000000000000000000000000000000000e00000000000000000000000000000000000000000000000000000b5e620f4800000000000000000000000000000000000000000000000000000000000000001e000000000000000000000000000000000000000000000000000000000000000e00000000000000000000000000000000000000000000000000000000000000020000000000000000000000000000000000000000000000000000000000000000100000000000000000000000000000000000000000000000000000000000000200000000000000000000000008c1a617bdb47342f9c17ac8750e0b070c372c721000000000000000000000000000000000000000000000000000000000000006000000000000000000000000000000000000000000000000000005af3107a40000000000000000000000000000000000000000000000000000000000000000000000000000000000000000000000000000000000000000000000000000000000600000000000000000000000000000000000000000000000000000000000000c0000000000000000000000000000000000000000000000000000000000000014000000000000000000000000000000000000000000000000000000000000001c00000000000000000000000000000000000000000000000000000000000000220000000000000000000000000000000000000000000000000000000000000028000000000000000000000000000000000000000000000000000000000000002e00000000000000000000000000000000000000000000000000000000000000044a362e5db000000000000000000000000eeeeeeeeeeeeeeeeeeeeeeeeeeeeeeeeeeeeeeee0000000000000000000000000000000000000000000000000000b5e620f4800000000000000000000000000000000000000000000000000000000000000000000000000000000000000000000000000000000000000000000000004484f550e00000000000000000000000000000000000000000000000000000000000000e100000000000000000000000000000000000000000000000000000000067ba27bc000000000000000000000000000000000000000000000000000000000000000000000000000000000000000000000000000000000000000000000024da07e15d000000000000000000000000ce8b068d4f7f2eb3bdafa72ec3c4fee78cf9ccf7000000000000000000000000000000000000000000000000000000000000000000000000000000000000000000000000000000000000000000000024dff49bf10000000000000000000000000000000000000000000000000000000000aa37dc000000000000000000000000000000000000000000000000000000000000000000000000000000000000000000000000000000000000000000000024ce03fdab00000000000000000000000000000000000000000000000000000000000000020000000000000000000000000000000000000000000000000000000000000000000000000000000000000000000000000000000000000000000000243bd94e4c0000000000000000000000008c1a617bdb47342f9c17ac8750e0b070c372c72100000000000000000000000000000000000000000000000000000000",
          "blockHash": "0x63508dbff4a16676fa2b4881c89095e39b314c032273042994aad464f9f28d4a",
          "blockNumber": "0x748443d",
          "transactionHash": "0xb591d539b8ff35c48857283855e8f549b6c24b1c5167a90dc94fc65133d3b9d0",
          "transactionIndex": "0x1",
          "logIndex": "0x0",
          "removed": false
        }
      ],
      "logsBloom": "0x00000000000000000000000010000000000000000000000000000000000001000000000000000000000000000000000000000000000000000000000000000000000002000000000000000000020000000020000000000000000000000000000000000000000000000000000000000008000000000000000000000000000000000000000000000000000000000000000000000000000000000000000000000000000000000000000000000004000000000000000100000000000000000000000000000000000000000000000000000000000000000000000000000000000000000000000000008000000000000000000000000000000000000000000000000000",
      "type": "0x2",
      "transactionHash": "0xb591d539b8ff35c48857283855e8f549b6c24b1c5167a90dc94fc65133d3b9d0",
      "transactionIndex": "0x1",
      "blockHash": "0x63508dbff4a16676fa2b4881c89095e39b314c032273042994aad464f9f28d4a",
      "blockNumber": "0x748443d",
      "gasUsed": "0x173eb",
      "effectiveGasPrice": "0x5f5e100",
      "from": "0x8c1a617bdb47342f9c17ac8750e0b070c372c721",
      "to": "0x09f9e99d379a9963fe13814b31b90ba81bf9a74f",
      "contractAddress": null,
      "gasUsedForL1": "0x0",
      "l1BlockNumber": "0x74ff38"
    }
  ],
  "libraries": [],
  "pending": [],
  "returns": {},
  "timestamp": 1739043520,
  "chain": 421614,
  "commit": "1294b7e"
}