{
  "transactions": [
    {
      "hash": "0x4b8eee51949315046be108e028205f608c3504b8e9466a2e9d88101b59441e8b",
      "transactionType": "CALL",
      "contractName": null,
      "contractAddress": "0x4b43589e343365f922c257ff48975c885a54e8d0",
      "function": "sendMessage(bytes32,bytes32,bytes,bytes[])",
      "arguments": [
        "0x0000000000000000000000000000000000000000000000000000000000014a34",
        "0x0000000000000000000000008e993853c303288f4fcd138e180e31a3c798e4f9",
        "0x0000000000000000000000000000000000000000000000000000000000000020000000000000000000000000000000000000000000000000000000000000000100000000000000000000000000000000000000000000000000000000000000200000000000000000000000008c1a617bdb47342f9c17ac8750e0b070c372c721000000000000000000000000000000000000000000000000000000000000006000000000000000000000000000000000000000000000000000005af3107a40000000000000000000000000000000000000000000000000000000000000000000",
        "[0xa362e5db000000000000000000000000eeeeeeeeeeeeeeeeeeeeeeeeeeeeeeeeeeeeeeee0000000000000000000000000000000000000000000000000000b5e620f48000, 0x84f550e00000000000000000000000000000000000000000000000000000000000093a800000000000000000000000000000000000000000000000000000000067ba2878, 0x7ff7245a0000000000000000000000004c8ba32a5dac2a720bb35cedb51d6b067d104205]"
      ],
      "transaction": {
        "from": "0x8c1a617bdb47342f9c17ac8750e0b070c372c721",
        "to": "0x4b43589e343365f922c257ff48975c885a54e8d0",
        "gas": "0x22f23",
        "value": "0xb5e620f48000",
        "input": "0xfff34eb90000000000000000000000000000000000000000000000000000000000014a340000000000000000000000008e993853c303288f4fcd138e180e31a3c798e4f90000000000000000000000000000000000000000000000000000000000000080000000000000000000000000000000000000000000000000000000000000018000000000000000000000000000000000000000000000000000000000000000e00000000000000000000000000000000000000000000000000000000000000020000000000000000000000000000000000000000000000000000000000000000100000000000000000000000000000000000000000000000000000000000000200000000000000000000000008c1a617bdb47342f9c17ac8750e0b070c372c721000000000000000000000000000000000000000000000000000000000000006000000000000000000000000000000000000000000000000000005af3107a400000000000000000000000000000000000000000000000000000000000000000000000000000000000000000000000000000000000000000000000000000000003000000000000000000000000000000000000000000000000000000000000006000000000000000000000000000000000000000000000000000000000000000e000000000000000000000000000000000000000000000000000000000000001600000000000000000000000000000000000000000000000000000000000000044a362e5db000000000000000000000000eeeeeeeeeeeeeeeeeeeeeeeeeeeeeeeeeeeeeeee0000000000000000000000000000000000000000000000000000b5e620f4800000000000000000000000000000000000000000000000000000000000000000000000000000000000000000000000000000000000000000000000004484f550e00000000000000000000000000000000000000000000000000000000000093a800000000000000000000000000000000000000000000000000000000067ba28780000000000000000000000000000000000000000000000000000000000000000000000000000000000000000000000000000000000000000000000247ff7245a0000000000000000000000004c8ba32a5dac2a720bb35cedb51d6b067d10420500000000000000000000000000000000000000000000000000000000",
        "nonce": "0x3a",
        "chainId": "0xaa37dc"
      },
      "additionalContracts": [],
      "isFixedGasLimit": false
    }
  ],
  "receipts": [
    {
      "status": "0x1",
      "cumulativeGasUsed": "0x42a91",
      "logs": [
        {
          "address": "0x4b43589e343365f922c257ff48975c885a54e8d0",
          "topics": [
            "0x14ccce6e0b6e428805c2f007dfbad914d0ae8dd4514a970138e0abe3d6adeaa9",
            "0x06c85ed4349f59080f257b120a6491f867fe75806748eceb4ab97a3426213b7f"
          ],
          "data": "0x0000000000000000000000000000000000000000000000000000000000aa37dc0000000000000000000000004b43589e343365f922c257ff48975c885a54e8d00000000000000000000000000000000000000000000000000000000000014a340000000000000000000000008e993853c303288f4fcd138e180e31a3c798e4f900000000000000000000000000000000000000000000000000000000000000e00000000000000000000000000000000000000000000000000000b5e620f4800000000000000000000000000000000000000000000000000000000000000001e000000000000000000000000000000000000000000000000000000000000000e00000000000000000000000000000000000000000000000000000000000000020000000000000000000000000000000000000000000000000000000000000000100000000000000000000000000000000000000000000000000000000000000200000000000000000000000008c1a617bdb47342f9c17ac8750e0b070c372c721000000000000000000000000000000000000000000000000000000000000006000000000000000000000000000000000000000000000000000005af3107a40000000000000000000000000000000000000000000000000000000000000000000000000000000000000000000000000000000000000000000000000000000000500000000000000000000000000000000000000000000000000000000000000a0000000000000000000000000000000000000000000000000000000000000012000000000000000000000000000000000000000000000000000000000000001a0000000000000000000000000000000000000000000000000000000000000020000000000000000000000000000000000000000000000000000000000000002600000000000000000000000000000000000000000000000000000000000000044a362e5db000000000000000000000000eeeeeeeeeeeeeeeeeeeeeeeeeeeeeeeeeeeeeeee0000000000000000000000000000000000000000000000000000b5e620f4800000000000000000000000000000000000000000000000000000000000000000000000000000000000000000000000000000000000000000000000004484f550e00000000000000000000000000000000000000000000000000000000000093a800000000000000000000000000000000000000000000000000000000067ba28780000000000000000000000000000000000000000000000000000000000000000000000000000000000000000000000000000000000000000000000247ff7245a0000000000000000000000004c8ba32a5dac2a720bb35cedb51d6b067d104205000000000000000000000000000000000000000000000000000000000000000000000000000000000000000000000000000000000000000000000024ce03fdab00000000000000000000000000000000000000000000000000000000000000010000000000000000000000000000000000000000000000000000000000000000000000000000000000000000000000000000000000000000000000243bd94e4c0000000000000000000000008c1a617bdb47342f9c17ac8750e0b070c372c72100000000000000000000000000000000000000000000000000000000",
          "blockHash": "0xb2fbf7ba8a2cd3bdb0c27fd6d91cba15b04bddcd46e1527b9395f8b659d1a7b4",
          "blockNumber": "0x1686be9",
          "transactionHash": "0x4b8eee51949315046be108e028205f608c3504b8e9466a2e9d88101b59441e8b",
          "transactionIndex": "0x5",
          "logIndex": "0x0",
          "removed": false
        }
      ],
      "logsBloom": "0x00000000000000000000000010000000000000000000000000000000000001000000000000000000000000000000000000000000000000010000000000000000040000000000000000000000000000000000000000000000000000000000000000000000400000000000000000000000000000000000000000000000000000000000000000000000000000000400000000000000000000000000000000000000000000000000000000000000008000000000000000000000000000004000000000000000000000000000000000000000000000000000000000000000000000000000000000008000000000000000000000000000000000000000000000000000",
      "type": "0x2",
      "transactionHash": "0x4b8eee51949315046be108e028205f608c3504b8e9466a2e9d88101b59441e8b",
      "transactionIndex": "0x5",
      "blockHash": "0xb2fbf7ba8a2cd3bdb0c27fd6d91cba15b04bddcd46e1527b9395f8b659d1a7b4",
      "blockNumber": "0x1686be9",
      "gasUsed": "0x17e51",
      "effectiveGasPrice": "0xf433b",
      "from": "0x8c1a617bdb47342f9c17ac8750e0b070c372c721",
      "to": "0x4b43589e343365f922c257ff48975c885a54e8d0",
      "contractAddress": null,
      "l1BaseFeeScalar": "0x1db0",
      "l1BlobBaseFee": "0x1",
      "l1BlobBaseFeeScalar": "0xd2730",
      "l1Fee": "0x4bb6553340",
      "l1GasPrice": "0x27af89804",
      "l1GasUsed": "0xfb0"
    }
  ],
  "libraries": [],
  "pending": [],
  "returns": {},
  "timestamp": 1739043711,
  "chain": 11155420,
  "commit": "1294b7e"
}