{
  "transactions": [
    {
      "hash": "0x7d0d3867061ed0a40f15001d824fb0de85ebefff4e917e249aa154983c272865",
      "transactionType": "CALL",
      "contractName": null,
      "contractAddress": "0x558d42dfd77b6e0ad643f63c23aaba426359cd75",
      "function": "sendMessage(string,string,bytes,bytes[])",
      "arguments": [
        "eip155:421614",
        "0x5873D69cd7Cd6f1040AA87E6107eB6516E9F5359",
        "0x0000000000000000000000000000000000000000000000000000000000000020000000000000000000000000000000000000000000000000000000000000000100000000000000000000000000000000000000000000000000000000000000200000000000000000000000008c1a617bdb47342f9c17ac8750e0b070c372c721000000000000000000000000000000000000000000000000000000000000006000000000000000000000000000000000000000000000000000005af3107a40000000000000000000000000000000000000000000000000000000000000000000",
        "[0xa362e5db000000000000000000000000eeeeeeeeeeeeeeeeeeeeeeeeeeeeeeeeeeeeeeee0000000000000000000000000000000000000000000000000000b5e620f48000, 0x84f550e00000000000000000000000000000000000000000000000000000000000093a80000000000000000000000000000000000000000000000000000000006779a6f6, 0x7ff7245a000000000000000000000000042b2e6c5e99d4c521bd49beed5e99651d9b0cf4]"
      ],
      "transaction": {
        "from": "0x8c1a617bdb47342f9c17ac8750e0b070c372c721",
        "to": "0x558d42dfd77b6e0ad643f63c23aaba426359cd75",
        "gas": "0x2b2ab",
        "value": "0xb5e620f48000",
        "input": "0x7cfd9bdc000000000000000000000000000000000000000000000000000000000000008000000000000000000000000000000000000000000000000000000000000000c000000000000000000000000000000000000000000000000000000000000001200000000000000000000000000000000000000000000000000000000000000220000000000000000000000000000000000000000000000000000000000000000d6569703135353a34323136313400000000000000000000000000000000000000000000000000000000000000000000000000000000000000000000000000002a3078353837334436396364374364366631303430414138374536313037654236353136453946353335390000000000000000000000000000000000000000000000000000000000000000000000000000000000000000000000000000000000e00000000000000000000000000000000000000000000000000000000000000020000000000000000000000000000000000000000000000000000000000000000100000000000000000000000000000000000000000000000000000000000000200000000000000000000000008c1a617bdb47342f9c17ac8750e0b070c372c721000000000000000000000000000000000000000000000000000000000000006000000000000000000000000000000000000000000000000000005af3107a400000000000000000000000000000000000000000000000000000000000000000000000000000000000000000000000000000000000000000000000000000000003000000000000000000000000000000000000000000000000000000000000006000000000000000000000000000000000000000000000000000000000000000e000000000000000000000000000000000000000000000000000000000000001600000000000000000000000000000000000000000000000000000000000000044a362e5db000000000000000000000000eeeeeeeeeeeeeeeeeeeeeeeeeeeeeeeeeeeeeeee0000000000000000000000000000000000000000000000000000b5e620f4800000000000000000000000000000000000000000000000000000000000000000000000000000000000000000000000000000000000000000000000004484f550e00000000000000000000000000000000000000000000000000000000000093a80000000000000000000000000000000000000000000000000000000006779a6f60000000000000000000000000000000000000000000000000000000000000000000000000000000000000000000000000000000000000000000000247ff7245a000000000000000000000000042b2e6c5e99d4c521bd49beed5e99651d9b0cf400000000000000000000000000000000000000000000000000000000",
        "nonce": "0x18",
        "chainId": "0xaa37dc"
      },
      "additionalContracts": [],
      "isFixedGasLimit": false
    }
  ],
  "receipts": [
    {
      "status": "0x1",
      "cumulativeGasUsed": "0x12482d",
      "logs": [
        {
          "address": "0x558d42dfd77b6e0ad643f63c23aaba426359cd75",
          "topics": [
            "0xa37ff6d366884aabcbf069aa27b0e52078eea55e90ad8fc2349cd0a2aac08298",
            "0xa8ce7a032f4f8d4643db997a82f9889ac8d41bcdebba322b05a92bff267adedf"
          ],
          "data": "0x00000000000000000000000000000000000000000000000000000000000000a0000000000000000000000000000000000000000000000000000000000000010000000000000000000000000000000000000000000000000000000000000001600000000000000000000000000000000000000000000000000000b5e620f480000000000000000000000000000000000000000000000000000000000000000260000000000000000000000000000000000000000000000000000000000000003a6569703135353a31313135353432303a30783535384434324446443737423645306144363433463633433233616162613432363335396364373500000000000000000000000000000000000000000000000000000000000000000000000000386569703135353a3432313631343a307835383733443639636437436436663130343041413837453631303765423635313645394635333539000000000000000000000000000000000000000000000000000000000000000000000000000000e00000000000000000000000000000000000000000000000000000000000000020000000000000000000000000000000000000000000000000000000000000000100000000000000000000000000000000000000000000000000000000000000200000000000000000000000008c1a617bdb47342f9c17ac8750e0b070c372c721000000000000000000000000000000000000000000000000000000000000006000000000000000000000000000000000000000000000000000005af3107a40000000000000000000000000000000000000000000000000000000000000000000000000000000000000000000000000000000000000000000000000000000000500000000000000000000000000000000000000000000000000000000000000a0000000000000000000000000000000000000000000000000000000000000012000000000000000000000000000000000000000000000000000000000000001a0000000000000000000000000000000000000000000000000000000000000020000000000000000000000000000000000000000000000000000000000000002600000000000000000000000000000000000000000000000000000000000000044a362e5db000000000000000000000000eeeeeeeeeeeeeeeeeeeeeeeeeeeeeeeeeeeeeeee0000000000000000000000000000000000000000000000000000b5e620f4800000000000000000000000000000000000000000000000000000000000000000000000000000000000000000000000000000000000000000000000004484f550e00000000000000000000000000000000000000000000000000000000000093a80000000000000000000000000000000000000000000000000000000006779a6f60000000000000000000000000000000000000000000000000000000000000000000000000000000000000000000000000000000000000000000000247ff7245a000000000000000000000000042b2e6c5e99d4c521bd49beed5e99651d9b0cf4000000000000000000000000000000000000000000000000000000000000000000000000000000000000000000000000000000000000000000000024ce03fdab00000000000000000000000000000000000000000000000000000000000000010000000000000000000000000000000000000000000000000000000000000000000000000000000000000000000000000000000000000000000000243bd94e4c0000000000000000000000008c1a617bdb47342f9c17ac8750e0b070c372c72100000000000000000000000000000000000000000000000000000000",
          "blockHash": "0xaa06ad6ad9ba77620c2e0b061d5cf5845c6acc237087e0b91f3dde2e261d6845",
          "blockNumber": "0x1482b29",
          "transactionHash": "0x7d0d3867061ed0a40f15001d824fb0de85ebefff4e917e249aa154983c272865",
          "transactionIndex": "0xc",
          "logIndex": "0x18",
          "removed": false
        }
      ],
      "logsBloom": "0x00000000000000000000000000000000000000000000000000000000000000000000000000000000000000000000000000000000004000000000000000000000000000000040000000000000000000000000000000000000000040000400000000000000000000000000000000000000004000000000000000000000000000000000000000000000000000000000000040000000000000000000000000000000000000000000000000000000000000000000000000000000000000000000000000000000000000000000000000000000000000000000000000000000000000000000000000000001000000000000004000000000000000000000000000800000",
      "type": "0x2",
      "transactionHash": "0x7d0d3867061ed0a40f15001d824fb0de85ebefff4e917e249aa154983c272865",
      "transactionIndex": "0xc",
      "blockHash": "0xaa06ad6ad9ba77620c2e0b061d5cf5845c6acc237087e0b91f3dde2e261d6845",
      "blockNumber": "0x1482b29",
      "gasUsed": "0x1d841",
      "effectiveGasPrice": "0xf1ba3",
      "from": "0x8c1a617bdb47342f9c17ac8750e0b070c372c721",
      "to": "0x558d42dfd77b6e0ad643f63c23aaba426359cd75",
      "contractAddress": null,
      "l1BaseFeeScalar": "0x1db0",
      "l1BlobBaseFee": "0x1",
      "l1BlobBaseFeeScalar": "0xd2730",
      "l1Fee": "0x1721e0bbe7",
      "l1GasPrice": "0xa9b01bbc",
      "l1GasUsed": "0x11ef"
    }
  ],
  "libraries": [],
  "pending": [],
  "returns": {},
  "timestamp": 1734816255,
  "chain": 11155420,
  "commit": "7c9068b"
}