{
  "transactions": [
    {
      "hash": "0x7aaab29ffd5c874d644b791605269ab6be23638b630fb91a733339ab160164be",
      "transactionType": "CALL",
      "contractName": null,
      "contractAddress": "0xb0524e2d930a46b4b7eea9fb1e586d00823f66d9",
      "function": "sendMessage(string,string,bytes,bytes[])",
      "arguments": [
        "eip155:84532",
        "0x4C1e8c60c3f07AD8A0d08FCD5Cf93f6b73dFeB76",
        "0x0000000000000000000000000000000000000000000000000000000000000020000000000000000000000000000000000000000000000000000000000000000100000000000000000000000000000000000000000000000000000000000000200000000000000000000000008c1a617bdb47342f9c17ac8750e0b070c372c721000000000000000000000000000000000000000000000000000000000000006000000000000000000000000000000000000000000000000000005af3107a40000000000000000000000000000000000000000000000000000000000000000000",
        "[0xa362e5db000000000000000000000000eeeeeeeeeeeeeeeeeeeeeeeeeeeeeeeeeeeeeeee0000000000000000000000000000000000000000000000000000b5e620f48000, 0x84f550e00000000000000000000000000000000000000000000000000000000000093a80000000000000000000000000000000000000000000000000000000006779a71e, 0x7ff7245a0000000000000000000000004c8ba32a5dac2a720bb35cedb51d6b067d104205]"
      ],
      "transaction": {
        "from": "0x8c1a617bdb47342f9c17ac8750e0b070c372c721",
        "to": "0xb0524e2d930a46b4b7eea9fb1e586d00823f66d9",
        "gas": "0x28ade",
        "value": "0xb5e620f48000",
        "input": "0x7cfd9bdc000000000000000000000000000000000000000000000000000000000000008000000000000000000000000000000000000000000000000000000000000000c000000000000000000000000000000000000000000000000000000000000001200000000000000000000000000000000000000000000000000000000000000220000000000000000000000000000000000000000000000000000000000000000c6569703135353a38343533320000000000000000000000000000000000000000000000000000000000000000000000000000000000000000000000000000002a3078344331653863363063336630374144384130643038464344354366393366366237336446654237360000000000000000000000000000000000000000000000000000000000000000000000000000000000000000000000000000000000e00000000000000000000000000000000000000000000000000000000000000020000000000000000000000000000000000000000000000000000000000000000100000000000000000000000000000000000000000000000000000000000000200000000000000000000000008c1a617bdb47342f9c17ac8750e0b070c372c721000000000000000000000000000000000000000000000000000000000000006000000000000000000000000000000000000000000000000000005af3107a400000000000000000000000000000000000000000000000000000000000000000000000000000000000000000000000000000000000000000000000000000000003000000000000000000000000000000000000000000000000000000000000006000000000000000000000000000000000000000000000000000000000000000e000000000000000000000000000000000000000000000000000000000000001600000000000000000000000000000000000000000000000000000000000000044a362e5db000000000000000000000000eeeeeeeeeeeeeeeeeeeeeeeeeeeeeeeeeeeeeeee0000000000000000000000000000000000000000000000000000b5e620f4800000000000000000000000000000000000000000000000000000000000000000000000000000000000000000000000000000000000000000000000004484f550e00000000000000000000000000000000000000000000000000000000000093a80000000000000000000000000000000000000000000000000000000006779a71e0000000000000000000000000000000000000000000000000000000000000000000000000000000000000000000000000000000000000000000000247ff7245a0000000000000000000000004c8ba32a5dac2a720bb35cedb51d6b067d10420500000000000000000000000000000000000000000000000000000000",
        "nonce": "0x19",
        "chainId": "0xaa37dc"
      },
      "additionalContracts": [],
      "isFixedGasLimit": false
    }
  ],
  "receipts": [
    {
      "status": "0x1",
      "cumulativeGasUsed": "0xfb903",
      "logs": [
        {
          "address": "0xb0524e2d930a46b4b7eea9fb1e586d00823f66d9",
          "topics": [
            "0xa37ff6d366884aabcbf069aa27b0e52078eea55e90ad8fc2349cd0a2aac08298",
            "0x2d5952d216dcc0ee11800340074d83c93a0c6b37c55a21243704431d5e1ff598"
          ],
          "data": "0x00000000000000000000000000000000000000000000000000000000000000a0000000000000000000000000000000000000000000000000000000000000010000000000000000000000000000000000000000000000000000000000000001600000000000000000000000000000000000000000000000000000b5e620f480000000000000000000000000000000000000000000000000000000000000000260000000000000000000000000000000000000000000000000000000000000003a6569703135353a31313135353432303a30786230353234653244393330413436623442374565613966623145353836643030383233663636443900000000000000000000000000000000000000000000000000000000000000000000000000376569703135353a38343533323a30783443316538633630633366303741443841306430384643443543663933663662373364466542373600000000000000000000000000000000000000000000000000000000000000000000000000000000e00000000000000000000000000000000000000000000000000000000000000020000000000000000000000000000000000000000000000000000000000000000100000000000000000000000000000000000000000000000000000000000000200000000000000000000000008c1a617bdb47342f9c17ac8750e0b070c372c721000000000000000000000000000000000000000000000000000000000000006000000000000000000000000000000000000000000000000000005af3107a40000000000000000000000000000000000000000000000000000000000000000000000000000000000000000000000000000000000000000000000000000000000500000000000000000000000000000000000000000000000000000000000000a0000000000000000000000000000000000000000000000000000000000000012000000000000000000000000000000000000000000000000000000000000001a0000000000000000000000000000000000000000000000000000000000000020000000000000000000000000000000000000000000000000000000000000002600000000000000000000000000000000000000000000000000000000000000044a362e5db000000000000000000000000eeeeeeeeeeeeeeeeeeeeeeeeeeeeeeeeeeeeeeee0000000000000000000000000000000000000000000000000000b5e620f4800000000000000000000000000000000000000000000000000000000000000000000000000000000000000000000000000000000000000000000000004484f550e00000000000000000000000000000000000000000000000000000000000093a80000000000000000000000000000000000000000000000000000000006779a71e0000000000000000000000000000000000000000000000000000000000000000000000000000000000000000000000000000000000000000000000247ff7245a0000000000000000000000004c8ba32a5dac2a720bb35cedb51d6b067d104205000000000000000000000000000000000000000000000000000000000000000000000000000000000000000000000000000000000000000000000024ce03fdab00000000000000000000000000000000000000000000000000000000000000010000000000000000000000000000000000000000000000000000000000000000000000000000000000000000000000000000000000000000000000243bd94e4c0000000000000000000000008c1a617bdb47342f9c17ac8750e0b070c372c72100000000000000000000000000000000000000000000000000000000",
          "blockHash": "0xf343da02473a1a9831bd06f84a0782e2f35fb9ce95a8bd7283b999bf50086add",
          "blockNumber": "0x1482b3d",
          "transactionHash": "0x7aaab29ffd5c874d644b791605269ab6be23638b630fb91a733339ab160164be",
          "transactionIndex": "0x7",
          "logIndex": "0xb",
          "removed": false
        }
      ],
      "logsBloom": "0x00000000000000000000000000000000000000000000000000000000000000000000000000000000000000000000000000000000000000000000000000000000000000000040000000000000000000000000000000000000000000000400000000000000000000000000000000000000000000010000000000000000000000000000000000000000000000000000000000000000000000000000000000000000000000000000002000000000000000000000000000000010000000000000000000000000000000000000200000000000000000001000000000000000000000000000000000000000040000000000004000000000000000000000000000000000",
      "type": "0x2",
      "transactionHash": "0x7aaab29ffd5c874d644b791605269ab6be23638b630fb91a733339ab160164be",
      "transactionIndex": "0x7",
      "blockHash": "0xf343da02473a1a9831bd06f84a0782e2f35fb9ce95a8bd7283b999bf50086add",
      "blockNumber": "0x1482b3d",
      "gasUsed": "0x1d738",
      "effectiveGasPrice": "0xf434a",
      "from": "0x8c1a617bdb47342f9c17ac8750e0b070c372c721",
      "to": "0xb0524e2d930a46b4b7eea9fb1e586d00823f66d9",
      "contractAddress": null,
      "l1BaseFeeScalar": "0x1db0",
      "l1BlobBaseFee": "0x1",
      "l1BlobBaseFeeScalar": "0xd2730",
      "l1Fee": "0x170d1848d2",
      "l1GasPrice": "0xa9963148",
      "l1GasUsed": "0x11e2"
    }
  ],
  "libraries": [],
  "pending": [],
  "returns": {},
  "timestamp": 1734816296,
  "chain": 11155420,
  "commit": "7c9068b"
}