{
  "transactions": [
    {
      "hash": "0xec44daa047b31dedb5aab025479aeca45d22e238c4edc2c7bfbd441ec15327bb",
      "transactionType": "CALL",
      "contractName": null,
      "contractAddress": "0xe4401eb53ae90a5335a51fe1828d7becf7a63508",
      "function": "sendMessage(bytes32,bytes32,bytes,bytes[])",
      "arguments": [
        "0x0000000000000000000000000000000000000000000000000000000000014a34",
        "0x0000000000000000000000008e993853c303288f4fcd138e180e31a3c798e4f9",
        "0x0000000000000000000000000000000000000000000000000000000000000020000000000000000000000000000000000000000000000000000000000000000100000000000000000000000000000000000000000000000000000000000000200000000000000000000000008c1a617bdb47342f9c17ac8750e0b070c372c721000000000000000000000000000000000000000000000000000000000000006000000000000000000000000000000000000000000000000000005af3107a40000000000000000000000000000000000000000000000000000000000000000000",
        "[0xa362e5db000000000000000000000000eeeeeeeeeeeeeeeeeeeeeeeeeeeeeeeeeeeeeeee0000000000000000000000000000000000000000000000000000b5e620f48000, 0x84f550e00000000000000000000000000000000000000000000000000000000000000e100000000000000000000000000000000000000000000000000000000067ba275a, 0xda07e15d0000000000000000000000006602dc9b6bd964c2a11bbda9b2275308d1bbc14f, 0xdff49bf10000000000000000000000000000000000000000000000000000000000014a34]"
      ],
      "transaction": {
        "from": "0x8c1a617bdb47342f9c17ac8750e0b070c372c721",
        "to": "0xe4401eb53ae90a5335a51fe1828d7becf7a63508",
        "gas": "0x22657",
        "value": "0xb5e620f48000",
        "input": "0xfff34eb90000000000000000000000000000000000000000000000000000000000014a340000000000000000000000008e993853c303288f4fcd138e180e31a3c798e4f90000000000000000000000000000000000000000000000000000000000000080000000000000000000000000000000000000000000000000000000000000018000000000000000000000000000000000000000000000000000000000000000e00000000000000000000000000000000000000000000000000000000000000020000000000000000000000000000000000000000000000000000000000000000100000000000000000000000000000000000000000000000000000000000000200000000000000000000000008c1a617bdb47342f9c17ac8750e0b070c372c721000000000000000000000000000000000000000000000000000000000000006000000000000000000000000000000000000000000000000000005af3107a40000000000000000000000000000000000000000000000000000000000000000000000000000000000000000000000000000000000000000000000000000000000400000000000000000000000000000000000000000000000000000000000000800000000000000000000000000000000000000000000000000000000000000100000000000000000000000000000000000000000000000000000000000000018000000000000000000000000000000000000000000000000000000000000001e00000000000000000000000000000000000000000000000000000000000000044a362e5db000000000000000000000000eeeeeeeeeeeeeeeeeeeeeeeeeeeeeeeeeeeeeeee0000000000000000000000000000000000000000000000000000b5e620f4800000000000000000000000000000000000000000000000000000000000000000000000000000000000000000000000000000000000000000000000004484f550e00000000000000000000000000000000000000000000000000000000000000e100000000000000000000000000000000000000000000000000000000067ba275a000000000000000000000000000000000000000000000000000000000000000000000000000000000000000000000000000000000000000000000024da07e15d0000000000000000000000006602dc9b6bd964c2a11bbda9b2275308d1bbc14f000000000000000000000000000000000000000000000000000000000000000000000000000000000000000000000000000000000000000000000024dff49bf10000000000000000000000000000000000000000000000000000000000014a3400000000000000000000000000000000000000000000000000000000",
        "nonce": "0x71",
        "chainId": "0x14a34"
      },
      "additionalContracts": [],
      "isFixedGasLimit": false
    }
  ],
  "receipts": [
    {
      "status": "0x1",
      "cumulativeGasUsed": "0xe1b9c1",
      "logs": [
        {
          "address": "0xe4401eb53ae90a5335a51fe1828d7becf7a63508",
          "topics": [
            "0x14ccce6e0b6e428805c2f007dfbad914d0ae8dd4514a970138e0abe3d6adeaa9",
            "0x4c82749034630e1865aa55592ba37b682f90331513c616352f7f9cdf4c541455"
          ],
          "data": "0x0000000000000000000000000000000000000000000000000000000000014a34000000000000000000000000e4401eb53ae90a5335a51fe1828d7becf7a635080000000000000000000000000000000000000000000000000000000000014a340000000000000000000000008e993853c303288f4fcd138e180e31a3c798e4f900000000000000000000000000000000000000000000000000000000000000e00000000000000000000000000000000000000000000000000000b5e620f4800000000000000000000000000000000000000000000000000000000000000001e000000000000000000000000000000000000000000000000000000000000000e00000000000000000000000000000000000000000000000000000000000000020000000000000000000000000000000000000000000000000000000000000000100000000000000000000000000000000000000000000000000000000000000200000000000000000000000008c1a617bdb47342f9c17ac8750e0b070c372c721000000000000000000000000000000000000000000000000000000000000006000000000000000000000000000000000000000000000000000005af3107a40000000000000000000000000000000000000000000000000000000000000000000000000000000000000000000000000000000000000000000000000000000000600000000000000000000000000000000000000000000000000000000000000c0000000000000000000000000000000000000000000000000000000000000014000000000000000000000000000000000000000000000000000000000000001c00000000000000000000000000000000000000000000000000000000000000220000000000000000000000000000000000000000000000000000000000000028000000000000000000000000000000000000000000000000000000000000002e00000000000000000000000000000000000000000000000000000000000000044a362e5db000000000000000000000000eeeeeeeeeeeeeeeeeeeeeeeeeeeeeeeeeeeeeeee0000000000000000000000000000000000000000000000000000b5e620f4800000000000000000000000000000000000000000000000000000000000000000000000000000000000000000000000000000000000000000000000004484f550e00000000000000000000000000000000000000000000000000000000000000e100000000000000000000000000000000000000000000000000000000067ba275a000000000000000000000000000000000000000000000000000000000000000000000000000000000000000000000000000000000000000000000024da07e15d0000000000000000000000006602dc9b6bd964c2a11bbda9b2275308d1bbc14f000000000000000000000000000000000000000000000000000000000000000000000000000000000000000000000000000000000000000000000024dff49bf10000000000000000000000000000000000000000000000000000000000014a34000000000000000000000000000000000000000000000000000000000000000000000000000000000000000000000000000000000000000000000024ce03fdab00000000000000000000000000000000000000000000000000000000000000010000000000000000000000000000000000000000000000000000000000000000000000000000000000000000000000000000000000000000000000243bd94e4c0000000000000000000000008c1a617bdb47342f9c17ac8750e0b070c372c72100000000000000000000000000000000000000000000000000000000",
          "blockHash": "0x866c2c48793b8e1356424b5b1b7d405a745d28893645e549b44eca8d3f6cf79f",
          "blockNumber": "0x14a29c1",
          "transactionHash": "0xec44daa047b31dedb5aab025479aeca45d22e238c4edc2c7bfbd441ec15327bb",
          "transactionIndex": "0x16",
          "logIndex": "0x27",
          "removed": false
        }
      ],
      "logsBloom": "0x00000000000000000000000010000000000000000000000000800000000001000000000000000000000000000000000000000000000000000000000000000000000000000000000000000000000000000000000000000000000000000000008000000000000000000000400000000000000000000000000000000000000000000000000000000000000000000000000000000000000000000000000000000000000000000000000000000000000000000000000000000000000000000000000000000000000000000000000010000000000000000001000000000000000000000000000000008000400000000000000000000000000000000000000000000000",
      "type": "0x2",
      "transactionHash": "0xec44daa047b31dedb5aab025479aeca45d22e238c4edc2c7bfbd441ec15327bb",
      "transactionIndex": "0x16",
      "blockHash": "0x866c2c48793b8e1356424b5b1b7d405a745d28893645e549b44eca8d3f6cf79f",
      "blockNumber": "0x14a29c1",
      "gasUsed": "0x18e70",
      "effectiveGasPrice": "0x4a801",
      "from": "0x8c1a617bdb47342f9c17ac8750e0b070c372c721",
      "to": "0xe4401eb53ae90a5335a51fe1828d7becf7a63508",
      "contractAddress": null,
      "l1BaseFeeScalar": "0x44d",
      "l1BlobBaseFee": "0x1",
      "l1BlobBaseFeeScalar": "0xa118b",
      "l1Fee": "0xd763dc0f6",
      "l1GasPrice": "0x2e18babf7",
      "l1GasUsed": "0x1093"
    }
  ],
  "libraries": [],
  "pending": [],
  "returns": {},
  "timestamp": 1739043428,
  "chain": 84532,
  "commit": "1294b7e"
}