{
  "transactions": [
    {
      "hash": "0x6b30decd29630c9b056b3698bb54095cc8af137817fcae5f01ecc970cf9cffb2",
      "transactionType": "CALL",
      "contractName": null,
      "contractAddress": "0x3d52b08c3b7bf624ead9a79b2e689ea93b80a270",
      "function": "sendMessage(string,string,bytes,bytes[])",
      "arguments": [
        "eip155:421614",
        "0x5873D69cd7Cd6f1040AA87E6107eB6516E9F5359",
        "0x0000000000000000000000000000000000000000000000000000000000000020000000000000000000000000000000000000000000000000000000000000000100000000000000000000000000000000000000000000000000000000000000200000000000000000000000008c1a617bdb47342f9c17ac8750e0b070c372c721000000000000000000000000000000000000000000000000000000000000006000000000000000000000000000000000000000000000000000005af3107a40000000000000000000000000000000000000000000000000000000000000000000",
        "[0xa362e5db000000000000000000000000eeeeeeeeeeeeeeeeeeeeeeeeeeeeeeeeeeeeeeee0000000000000000000000000000000000000000000000000000b5e620f48000, 0x84f550e00000000000000000000000000000000000000000000000000000000000093a80000000000000000000000000000000000000000000000000000000006779a5ee, 0x7ff7245a000000000000000000000000042b2e6c5e99d4c521bd49beed5e99651d9b0cf4]"
      ],
      "transaction": {
        "from": "0x8c1a617bdb47342f9c17ac8750e0b070c372c721",
        "to": "0x3d52b08c3b7bf624ead9a79b2e689ea93b80a270",
        "gas": "0x22f61",
        "value": "0xb5e620f48000",
        "input": "0x7cfd9bdc000000000000000000000000000000000000000000000000000000000000008000000000000000000000000000000000000000000000000000000000000000c000000000000000000000000000000000000000000000000000000000000001200000000000000000000000000000000000000000000000000000000000000220000000000000000000000000000000000000000000000000000000000000000d6569703135353a34323136313400000000000000000000000000000000000000000000000000000000000000000000000000000000000000000000000000002a3078353837334436396364374364366631303430414138374536313037654236353136453946353335390000000000000000000000000000000000000000000000000000000000000000000000000000000000000000000000000000000000e00000000000000000000000000000000000000000000000000000000000000020000000000000000000000000000000000000000000000000000000000000000100000000000000000000000000000000000000000000000000000000000000200000000000000000000000008c1a617bdb47342f9c17ac8750e0b070c372c721000000000000000000000000000000000000000000000000000000000000006000000000000000000000000000000000000000000000000000005af3107a400000000000000000000000000000000000000000000000000000000000000000000000000000000000000000000000000000000000000000000000000000000003000000000000000000000000000000000000000000000000000000000000006000000000000000000000000000000000000000000000000000000000000000e000000000000000000000000000000000000000000000000000000000000001600000000000000000000000000000000000000000000000000000000000000044a362e5db000000000000000000000000eeeeeeeeeeeeeeeeeeeeeeeeeeeeeeeeeeeeeeee0000000000000000000000000000000000000000000000000000b5e620f4800000000000000000000000000000000000000000000000000000000000000000000000000000000000000000000000000000000000000000000000004484f550e00000000000000000000000000000000000000000000000000000000000093a80000000000000000000000000000000000000000000000000000000006779a5ee0000000000000000000000000000000000000000000000000000000000000000000000000000000000000000000000000000000000000000000000247ff7245a000000000000000000000000042b2e6c5e99d4c521bd49beed5e99651d9b0cf400000000000000000000000000000000000000000000000000000000",
        "nonce": "0x2c",
        "chainId": "0x14a34"
      },
      "additionalContracts": [],
      "isFixedGasLimit": false
    }
  ],
  "receipts": [
    {
      "status": "0x1",
      "cumulativeGasUsed": "0xe9827",
      "logs": [
        {
          "address": "0x3d52b08c3b7bf624ead9a79b2e689ea93b80a270",
          "topics": [
            "0xa37ff6d366884aabcbf069aa27b0e52078eea55e90ad8fc2349cd0a2aac08298",
            "0xff8cbb6ba1a81e1d5a8c2c50db6a0fa8126b770ec235d855aa2a7925c7a10d97"
          ],
          "data": "0x00000000000000000000000000000000000000000000000000000000000000a0000000000000000000000000000000000000000000000000000000000000010000000000000000000000000000000000000000000000000000000000000001600000000000000000000000000000000000000000000000000000b5e620f48000000000000000000000000000000000000000000000000000000000000000026000000000000000000000000000000000000000000000000000000000000000376569703135353a38343533323a30783344353262303843334237426636323465414439413739623265363839654139336238304132373000000000000000000000000000000000000000000000000000000000000000000000000000000000386569703135353a3432313631343a307835383733443639636437436436663130343041413837453631303765423635313645394635333539000000000000000000000000000000000000000000000000000000000000000000000000000000e00000000000000000000000000000000000000000000000000000000000000020000000000000000000000000000000000000000000000000000000000000000100000000000000000000000000000000000000000000000000000000000000200000000000000000000000008c1a617bdb47342f9c17ac8750e0b070c372c721000000000000000000000000000000000000000000000000000000000000006000000000000000000000000000000000000000000000000000005af3107a40000000000000000000000000000000000000000000000000000000000000000000000000000000000000000000000000000000000000000000000000000000000500000000000000000000000000000000000000000000000000000000000000a0000000000000000000000000000000000000000000000000000000000000012000000000000000000000000000000000000000000000000000000000000001a0000000000000000000000000000000000000000000000000000000000000020000000000000000000000000000000000000000000000000000000000000002600000000000000000000000000000000000000000000000000000000000000044a362e5db000000000000000000000000eeeeeeeeeeeeeeeeeeeeeeeeeeeeeeeeeeeeeeee0000000000000000000000000000000000000000000000000000b5e620f4800000000000000000000000000000000000000000000000000000000000000000000000000000000000000000000000000000000000000000000000004484f550e00000000000000000000000000000000000000000000000000000000000093a80000000000000000000000000000000000000000000000000000000006779a5ee0000000000000000000000000000000000000000000000000000000000000000000000000000000000000000000000000000000000000000000000247ff7245a000000000000000000000000042b2e6c5e99d4c521bd49beed5e99651d9b0cf4000000000000000000000000000000000000000000000000000000000000000000000000000000000000000000000000000000000000000000000024ce03fdab00000000000000000000000000000000000000000000000000000000000000040000000000000000000000000000000000000000000000000000000000000000000000000000000000000000000000000000000000000000000000243bd94e4c0000000000000000000000008c1a617bdb47342f9c17ac8750e0b070c372c72100000000000000000000000000000000000000000000000000000000",
          "blockHash": "0x59cbb0d70303751b2d7ddcb105cab04c0a8b047114e6643d61f51ae5438ce4db",
          "blockNumber": "0x129e90a",
          "transactionHash": "0x6b30decd29630c9b056b3698bb54095cc8af137817fcae5f01ecc970cf9cffb2",
          "transactionIndex": "0xa",
          "logIndex": "0x10",
          "removed": false
        }
      ],
      "logsBloom": "0x00000000000002000000000000000000000000200000000000000000000020000000000000004000000000000000000000000000000000000000000000000000000000000040000000000000000000000000000000000000000000000400000000000000000000000000000000000000000000000000000000000000000000000000000000000000000000000000000000000080000100000000000000000000000000000000000000000000000000000000000000000000000000000000000000000000000000000000000000000000000000000000000000000000000000000000000000000000000000000000004000000000000000000000000000000000",
      "type": "0x2",
      "transactionHash": "0x6b30decd29630c9b056b3698bb54095cc8af137817fcae5f01ecc970cf9cffb2",
      "transactionIndex": "0xa",
      "blockHash": "0x59cbb0d70303751b2d7ddcb105cab04c0a8b047114e6643d61f51ae5438ce4db",
      "blockNumber": "0x129e90a",
      "gasUsed": "0x194fc",
      "effectiveGasPrice": "0x2ff",
      "from": "0x8c1a617bdb47342f9c17ac8750e0b070c372c721",
      "to": "0x3d52b08c3b7bf624ead9a79b2e689ea93b80a270",
      "contractAddress": null,
      "l1BaseFeeScalar": "0x44d",
      "l1BlobBaseFee": "0x1",
      "l1BlobBaseFeeScalar": "0xa118b",
      "l1Fee": "0x34bfaeae4",
      "l1GasPrice": "0xa6ef9d4d",
      "l1GasUsed": "0x11ef"
    }
  ],
  "libraries": [],
  "pending": [],
  "returns": {},
  "timestamp": 1734815989,
  "chain": 84532,
  "commit": "7c9068b"
}