{
  "transactions": [
    {
      "hash": "0x79441c473d37d4808a37e9aa896bb1650a0576457eed2a7d06f024152006a992",
      "transactionType": "CALL",
      "contractName": null,
      "contractAddress": "0x887f1bf9f66dfc92901daccc3d88462b17251b75",
      "function": "sendMessage(string,string,bytes,bytes[])",
      "arguments": [
        "eip155:11155420",
        "0xcDdCD048d3AbdE4c917391f65fE296B64841619C",
        "0x0000000000000000000000000000000000000000000000000000000000000020000000000000000000000000000000000000000000000000000000000000000100000000000000000000000000000000000000000000000000000000000000200000000000000000000000008c1a617bdb47342f9c17ac8750e0b070c372c721000000000000000000000000000000000000000000000000000000000000006000000000000000000000000000000000000000000000000000005af3107a40000000000000000000000000000000000000000000000000000000000000000000",
        "[0xa362e5db000000000000000000000000eeeeeeeeeeeeeeeeeeeeeeeeeeeeeeeeeeeeeeee0000000000000000000000000000000000000000000000000000b5e620f48000, 0x84f550e00000000000000000000000000000000000000000000000000000000000093a80000000000000000000000000000000000000000000000000000000006779a66e, 0x7ff7245a000000000000000000000000218cd9489199f321e1177b56385d333c5b598629]"
      ],
      "transaction": {
        "from": "0x8c1a617bdb47342f9c17ac8750e0b070c372c721",
        "to": "0x887f1bf9f66dfc92901daccc3d88462b17251b75",
        "gas": "0x28981",
        "value": "0xb5e620f48000",
        "input": "0x7cfd9bdc000000000000000000000000000000000000000000000000000000000000008000000000000000000000000000000000000000000000000000000000000000c000000000000000000000000000000000000000000000000000000000000001200000000000000000000000000000000000000000000000000000000000000220000000000000000000000000000000000000000000000000000000000000000f6569703135353a31313135353432300000000000000000000000000000000000000000000000000000000000000000000000000000000000000000000000002a3078634464434430343864334162644534633931373339316636356645323936423634383431363139430000000000000000000000000000000000000000000000000000000000000000000000000000000000000000000000000000000000e00000000000000000000000000000000000000000000000000000000000000020000000000000000000000000000000000000000000000000000000000000000100000000000000000000000000000000000000000000000000000000000000200000000000000000000000008c1a617bdb47342f9c17ac8750e0b070c372c721000000000000000000000000000000000000000000000000000000000000006000000000000000000000000000000000000000000000000000005af3107a400000000000000000000000000000000000000000000000000000000000000000000000000000000000000000000000000000000000000000000000000000000003000000000000000000000000000000000000000000000000000000000000006000000000000000000000000000000000000000000000000000000000000000e000000000000000000000000000000000000000000000000000000000000001600000000000000000000000000000000000000000000000000000000000000044a362e5db000000000000000000000000eeeeeeeeeeeeeeeeeeeeeeeeeeeeeeeeeeeeeeee0000000000000000000000000000000000000000000000000000b5e620f4800000000000000000000000000000000000000000000000000000000000000000000000000000000000000000000000000000000000000000000000004484f550e00000000000000000000000000000000000000000000000000000000000093a80000000000000000000000000000000000000000000000000000000006779a66e0000000000000000000000000000000000000000000000000000000000000000000000000000000000000000000000000000000000000000000000247ff7245a000000000000000000000000218cd9489199f321e1177b56385d333c5b59862900000000000000000000000000000000000000000000000000000000",
        "nonce": "0x2e",
        "chainId": "0x14a34"
      },
      "additionalContracts": [],
      "isFixedGasLimit": false
    }
  ],
  "receipts": [
    {
      "status": "0x1",
      "cumulativeGasUsed": "0x18cc10",
      "logs": [
        {
          "address": "0x887f1bf9f66dfc92901daccc3d88462b17251b75",
          "topics": [
            "0xa37ff6d366884aabcbf069aa27b0e52078eea55e90ad8fc2349cd0a2aac08298",
            "0x83a420898ce8bb4c69789cf868ca976e8b102c59e6bf5b558ff12db9ee3198c3"
          ],
          "data": "0x00000000000000000000000000000000000000000000000000000000000000a0000000000000000000000000000000000000000000000000000000000000010000000000000000000000000000000000000000000000000000000000000001600000000000000000000000000000000000000000000000000000b5e620f48000000000000000000000000000000000000000000000000000000000000000026000000000000000000000000000000000000000000000000000000000000000376569703135353a38343533323a307838383766314266394636364446633932393031646143634333643838343632623137323531423735000000000000000000000000000000000000000000000000000000000000000000000000000000003a6569703135353a31313135353432303a30786344644344303438643341626445346339313733393166363566453239364236343834313631394300000000000000000000000000000000000000000000000000000000000000000000000000e00000000000000000000000000000000000000000000000000000000000000020000000000000000000000000000000000000000000000000000000000000000100000000000000000000000000000000000000000000000000000000000000200000000000000000000000008c1a617bdb47342f9c17ac8750e0b070c372c721000000000000000000000000000000000000000000000000000000000000006000000000000000000000000000000000000000000000000000005af3107a40000000000000000000000000000000000000000000000000000000000000000000000000000000000000000000000000000000000000000000000000000000000500000000000000000000000000000000000000000000000000000000000000a0000000000000000000000000000000000000000000000000000000000000012000000000000000000000000000000000000000000000000000000000000001a0000000000000000000000000000000000000000000000000000000000000020000000000000000000000000000000000000000000000000000000000000002600000000000000000000000000000000000000000000000000000000000000044a362e5db000000000000000000000000eeeeeeeeeeeeeeeeeeeeeeeeeeeeeeeeeeeeeeee0000000000000000000000000000000000000000000000000000b5e620f4800000000000000000000000000000000000000000000000000000000000000000000000000000000000000000000000000000000000000000000000004484f550e00000000000000000000000000000000000000000000000000000000000093a80000000000000000000000000000000000000000000000000000000006779a66e0000000000000000000000000000000000000000000000000000000000000000000000000000000000000000000000000000000000000000000000247ff7245a000000000000000000000000218cd9489199f321e1177b56385d333c5b598629000000000000000000000000000000000000000000000000000000000000000000000000000000000000000000000000000000000000000000000024ce03fdab00000000000000000000000000000000000000000000000000000000000000010000000000000000000000000000000000000000000000000000000000000000000000000000000000000000000000000000000000000000000000243bd94e4c0000000000000000000000008c1a617bdb47342f9c17ac8750e0b070c372c72100000000000000000000000000000000000000000000000000000000",
          "blockHash": "0x06480bddeb94c1dcc0aa31758980cd98afd5c86e088abe4b23da8fc2e01ec19a",
          "blockNumber": "0x129e94a",
          "transactionHash": "0x79441c473d37d4808a37e9aa896bb1650a0576457eed2a7d06f024152006a992",
          "transactionIndex": "0xf",
          "logIndex": "0x2a",
          "removed": false
        }
      ],
      "logsBloom": "0x00000000000000000000000000000000000000000000100000000000000000000000000000000000000000000000000000000000000000000000000000000000000004000040000000000000000000200000000000000000000000000400000000000000000000000000000000000000000000000000000000000000000000000000000800000000000000000000000000000000000000000000000000000000000000000000000000000000000000000000000000000000000000000000000000000000000000000000000000000000000000000000000000000000000000000000000000000080000000000000004000020000000000000000000000000000",
      "type": "0x2",
      "transactionHash": "0x79441c473d37d4808a37e9aa896bb1650a0576457eed2a7d06f024152006a992",
      "transactionIndex": "0xf",
      "blockHash": "0x06480bddeb94c1dcc0aa31758980cd98afd5c86e088abe4b23da8fc2e01ec19a",
      "blockNumber": "0x129e94a",
      "gasUsed": "0x1d63c",
      "effectiveGasPrice": "0xc53d",
      "from": "0x8c1a617bdb47342f9c17ac8750e0b070c372c721",
      "to": "0x887f1bf9f66dfc92901daccc3d88462b17251b75",
      "contractAddress": null,
      "l1BaseFeeScalar": "0x44d",
      "l1BlobBaseFee": "0x1",
      "l1BlobBaseFeeScalar": "0xa118b",
      "l1Fee": "0x384b15352",
      "l1GasPrice": "0xb1a2c139",
      "l1GasUsed": "0x11fd"
    }
  ],
  "libraries": [],
  "pending": [],
  "returns": {},
  "timestamp": 1734816117,
  "chain": 84532,
  "commit": "7c9068b"
}